{
  "contractName": "DescriptiveToken",
  "abi": [
    {
      "constant": true,
      "inputs": [],
      "name": "name",
      "outputs": [
        {
          "name": "",
          "type": "string"
        }
      ],
      "payable": false,
      "stateMutability": "view",
      "type": "function"
    },
    {
      "constant": true,
      "inputs": [],
      "name": "totalSupply",
      "outputs": [
        {
          "name": "",
          "type": "uint256"
        }
      ],
      "payable": false,
      "stateMutability": "view",
      "type": "function"
    },
    {
      "constant": true,
      "inputs": [],
      "name": "decimals",
      "outputs": [
        {
          "name": "",
          "type": "uint256"
        }
      ],
      "payable": false,
      "stateMutability": "view",
      "type": "function"
    },
    {
      "constant": true,
      "inputs": [
        {
          "name": "_owner",
          "type": "address"
        }
      ],
      "name": "balanceOf",
      "outputs": [
        {
          "name": "balance",
          "type": "uint256"
        }
      ],
      "payable": false,
      "stateMutability": "view",
      "type": "function"
    },
    {
      "constant": true,
      "inputs": [],
      "name": "owner",
      "outputs": [
        {
          "name": "",
          "type": "address"
        }
      ],
      "payable": false,
      "stateMutability": "view",
      "type": "function"
    },
    {
      "constant": true,
      "inputs": [],
      "name": "symbol",
      "outputs": [
        {
          "name": "",
          "type": "string"
        }
      ],
      "payable": false,
      "stateMutability": "view",
      "type": "function"
    },
    {
      "constant": false,
      "inputs": [
        {
          "name": "_to",
          "type": "address"
        },
        {
          "name": "_value",
          "type": "uint256"
        }
      ],
      "name": "transfer",
      "outputs": [
        {
          "name": "",
          "type": "bool"
        }
      ],
      "payable": false,
      "stateMutability": "nonpayable",
      "type": "function"
    },
    {
      "constant": true,
      "inputs": [],
      "name": "isDescriptionFinalized",
      "outputs": [
        {
          "name": "",
          "type": "bool"
        }
      ],
      "payable": false,
      "stateMutability": "view",
      "type": "function"
    },
    {
      "constant": false,
      "inputs": [
        {
          "name": "_name",
          "type": "string"
        },
        {
          "name": "_symbol",
          "type": "string"
        }
      ],
      "name": "changeDescription",
      "outputs": [],
      "payable": false,
      "stateMutability": "nonpayable",
      "type": "function"
    },
    {
      "constant": false,
      "inputs": [
        {
          "name": "newOwner",
          "type": "address"
        }
      ],
      "name": "transferOwnership",
      "outputs": [],
      "payable": false,
      "stateMutability": "nonpayable",
      "type": "function"
    },
    {
      "constant": false,
      "inputs": [],
      "name": "finalizeDescription",
      "outputs": [],
      "payable": false,
      "stateMutability": "nonpayable",
      "type": "function"
    },
    {
      "inputs": [
        {
          "name": "_name",
          "type": "string"
        },
        {
          "name": "_symbol",
          "type": "string"
        }
      ],
      "payable": false,
      "stateMutability": "nonpayable",
      "type": "constructor"
    },
    {
      "anonymous": false,
      "inputs": [
        {
          "indexed": false,
          "name": "name",
          "type": "string"
        },
        {
          "indexed": false,
          "name": "symbol",
          "type": "string"
        }
      ],
      "name": "DescriptionChanged",
      "type": "event"
    },
    {
      "anonymous": false,
      "inputs": [],
      "name": "DescriptionFinalized",
      "type": "event"
    },
    {
      "anonymous": false,
      "inputs": [
        {
          "indexed": true,
          "name": "previousOwner",
          "type": "address"
        },
        {
          "indexed": true,
          "name": "newOwner",
          "type": "address"
        }
      ],
      "name": "OwnershipTransferred",
      "type": "event"
    },
    {
      "anonymous": false,
      "inputs": [
        {
          "indexed": true,
          "name": "from",
          "type": "address"
        },
        {
          "indexed": true,
          "name": "to",
          "type": "address"
        },
        {
          "indexed": false,
          "name": "value",
          "type": "uint256"
        }
      ],
      "name": "Transfer",
      "type": "event"
    }
  ],
  "bytecode": "0x60606040526012600655341561001457600080fd5b60405162000ee538038062000ee58339810160405280805182019190602001805182019190505033600260006101000a81548173ffffffffffffffffffffffffffffffffffffffff021916908373ffffffffffffffffffffffffffffffffffffffff160217905550816000815111151561008d57600080fd5b816000815111151561009e57600080fd5b83600390805190602001906100b49291906100d5565b5082600490805190602001906100cb9291906100d5565b505050505061017a565b828054600181600116156101000203166002900490600052602060002090601f016020900481019282601f1061011657805160ff1916838001178555610144565b82800160010185558215610144579182015b82811115610143578251825591602001919060010190610128565b5b5090506101519190610155565b5090565b61017791905b8082111561017357600081600090555060010161015b565b5090565b90565b610d5b806200018a6000396000f3006060604052600436106100af576000357c0100000000000000000000000000000000000000000000000000000000900463ffffffff16806306fdde03146100b457806318160ddd14610142578063313ce5671461016b57806370a08231146101945780638da5cb5b146101e157806395d89b4114610236578063a9059cbb146102c4578063c5044b621461031e578063c80459411461034b578063f2fde38b146103eb578063fca129a314610424575b600080fd5b34156100bf57600080fd5b6100c7610439565b6040518080602001828103825283818151815260200191508051906020019080838360005b838110156101075780820151818401526020810190506100ec565b50505050905090810190601f1680156101345780820380516001836020036101000a031916815260200191505b509250505060405180910390f35b341561014d57600080fd5b6101556104d7565b6040518082815260200191505060405180910390f35b341561017657600080fd5b61017e6104dd565b6040518082815260200191505060405180910390f35b341561019f57600080fd5b6101cb600480803573ffffffffffffffffffffffffffffffffffffffff169060200190919050506104e3565b6040518082815260200191505060405180910390f35b34156101ec57600080fd5b6101f461052c565b604051808273ffffffffffffffffffffffffffffffffffffffff1673ffffffffffffffffffffffffffffffffffffffff16815260200191505060405180910390f35b341561024157600080fd5b610249610552565b6040518080602001828103825283818151815260200191508051906020019080838360005b8381101561028957808201518184015260208101905061026e565b50505050905090810190601f1680156102b65780820380516001836020036101000a031916815260200191505b509250505060405180910390f35b34156102cf57600080fd5b610304600480803573ffffffffffffffffffffffffffffffffffffffff169060200190919080359060200190919050506105f0565b604051808215151515815260200191505060405180910390f35b341561032957600080fd5b610331610814565b604051808215151515815260200191505060405180910390f35b341561035657600080fd5b6103e9600480803590602001908201803590602001908080601f0160208091040260200160405190810160405280939291908181526020018383808284378201915050505050509190803590602001908201803590602001908080601f01602080910402602001604051908101604052809392919081815260200183838082843782019150505050505091905050610827565b005b34156103f657600080fd5b610422600480803573ffffffffffffffffffffffffffffffffffffffff16906020019091905050610a3a565b005b341561042f57600080fd5b610437610b92565b005b60038054600181600116156101000203166002900480601f0160208091040260200160405190810160405280929190818152602001828054600181600116156101000203166002900480156104cf5780601f106104a4576101008083540402835291602001916104cf565b820191906000526020600020905b8154815290600101906020018083116104b257829003601f168201915b505050505081565b60005481565b60065481565b6000600160008373ffffffffffffffffffffffffffffffffffffffff1673ffffffffffffffffffffffffffffffffffffffff168152602001908152602001600020549050919050565b600260009054906101000a900473ffffffffffffffffffffffffffffffffffffffff1681565b60048054600181600116156101000203166002900480601f0160208091040260200160405190810160405280929190818152602001828054600181600116156101000203166002900480156105e85780601f106105bd576101008083540402835291602001916105e8565b820191906000526020600020905b8154815290600101906020018083116105cb57829003601f168201915b505050505081565b60008073ffffffffffffffffffffffffffffffffffffffff168373ffffffffffffffffffffffffffffffffffffffff161415151561062d57600080fd5b600160003373ffffffffffffffffffffffffffffffffffffffff1673ffffffffffffffffffffffffffffffffffffffff16815260200190815260200160002054821115151561067b57600080fd5b6106cd82600160003373ffffffffffffffffffffffffffffffffffffffff1673ffffffffffffffffffffffffffffffffffffffff16815260200190815260200160002054610c5390919063ffffffff16565b600160003373ffffffffffffffffffffffffffffffffffffffff1673ffffffffffffffffffffffffffffffffffffffff1681526020019081526020016000208190555061076282600160008673ffffffffffffffffffffffffffffffffffffffff1673ffffffffffffffffffffffffffffffffffffffff16815260200190815260200160002054610c6c90919063ffffffff16565b600160008573ffffffffffffffffffffffffffffffffffffffff1673ffffffffffffffffffffffffffffffffffffffff168152602001908152602001600020819055508273ffffffffffffffffffffffffffffffffffffffff163373ffffffffffffffffffffffffffffffffffffffff167fddf252ad1be2c89b69c2b068fc378daa952ba7f163c4a11628f55a4df523b3ef846040518082815260200191505060405180910390a36001905092915050565b600560009054906101000a900460ff1681565b600260009054906101000a900473ffffffffffffffffffffffffffffffffffffffff1673ffffffffffffffffffffffffffffffffffffffff163373ffffffffffffffffffffffffffffffffffffffff1614151561088357600080fd5b600560009054906101000a900460ff1615151561089f57600080fd5b81600081511115156108b057600080fd5b81600081511115156108c157600080fd5b83600390805190602001906108d7929190610c8a565b5082600490805190602001906108ee929190610c8a565b507f4c714ed400777523a08c9a597a0c014afca0780da3f4b607abb5f9829eb73552600360046040518080602001806020018381038352858181546001816001161561010002031660029004815260200191508054600181600116156101000203166002900480156109a15780601f10610976576101008083540402835291602001916109a1565b820191906000526020600020905b81548152906001019060200180831161098457829003601f168201915b5050838103825284818154600181600116156101000203166002900481526020019150805460018160011615610100020316600290048015610a245780601f106109f957610100808354040283529160200191610a24565b820191906000526020600020905b815481529060010190602001808311610a0757829003601f168201915b505094505050505060405180910390a150505050565b600260009054906101000a900473ffffffffffffffffffffffffffffffffffffffff1673ffffffffffffffffffffffffffffffffffffffff163373ffffffffffffffffffffffffffffffffffffffff16141515610a9657600080fd5b600073ffffffffffffffffffffffffffffffffffffffff168173ffffffffffffffffffffffffffffffffffffffff1614151515610ad257600080fd5b8073ffffffffffffffffffffffffffffffffffffffff16600260009054906101000a900473ffffffffffffffffffffffffffffffffffffffff1673ffffffffffffffffffffffffffffffffffffffff167f8be0079c531659141344cd1fd0a4f28419497f9722a3daafe3b4186f6b6457e060405160405180910390a380600260006101000a81548173ffffffffffffffffffffffffffffffffffffffff021916908373ffffffffffffffffffffffffffffffffffffffff16021790555050565b600260009054906101000a900473ffffffffffffffffffffffffffffffffffffffff1673ffffffffffffffffffffffffffffffffffffffff163373ffffffffffffffffffffffffffffffffffffffff16141515610bee57600080fd5b600560009054906101000a900460ff16151515610c0a57600080fd5b6001600560006101000a81548160ff0219169083151502179055507f438bdc6d03f0933e768dea87718d87f62a6768195153c07f98ebf4ae4a8ae92360405160405180910390a1565b6000828211151515610c6157fe5b818303905092915050565b6000808284019050838110151515610c8057fe5b8091505092915050565b828054600181600116156101000203166002900490600052602060002090601f016020900481019282601f10610ccb57805160ff1916838001178555610cf9565b82800160010185558215610cf9579182015b82811115610cf8578251825591602001919060010190610cdd565b5b509050610d069190610d0a565b5090565b610d2c91905b80821115610d28576000816000905550600101610d10565b5090565b905600a165627a7a723058200b691a5bccc72385fa23eb16f0843b04717a244147848f71674a2960005058270029",
  "source": "pragma solidity 0.4.18;\n\nimport { BasicToken } from \"zeppelin-solidity/contracts/token/BasicToken.sol\";\nimport { Ownable } from \"zeppelin-solidity/contracts/ownership/Ownable.sol\";\n\n\n/**\n * @title A token with modifiable name and symbol\n * @author Jakub Stefanski (https://github.com/jstefanski)\n */\ncontract DescriptiveToken is BasicToken, Ownable {\n\n    string public name;\n    string public symbol;\n    bool public isDescriptionFinalized;\n    uint256 public decimals = 18;\n\n    function DescriptiveToken(\n        string _name,\n        string _symbol\n    )\n        public\n        onlyNotEmpty(_name)\n        onlyNotEmpty(_symbol)\n    {\n        name = _name;\n        symbol = _symbol;\n    }\n\n    /**\n     * @dev Logs change of token name and symbol\n     * @param name string The new token name\n     * @param symbol string The new token symbol\n     */\n    event DescriptionChanged(string name, string symbol);\n\n    /**\n     * @dev Further changes to name and symbol are forbidden\n     */\n    event DescriptionFinalized();\n\n    modifier onlyNotEmpty(string str) {\n        require(bytes(str).length > 0);\n        _;\n    }\n\n    modifier onlyDescriptionNotFinalized() {\n        require(!isDescriptionFinalized);\n        _;\n    }\n\n    /**\n     * @dev Change name and symbol of tokens\n     * @dev May be used in case of symbol collisions in exchanges.\n     * @param _name string A new token name\n     * @param _symbol string A new token symbol\n     */\n    function changeDescription(string _name, string _symbol)\n        public\n        onlyOwner\n        onlyDescriptionNotFinalized\n        onlyNotEmpty(_name)\n        onlyNotEmpty(_symbol)\n    {\n        name = _name;\n        symbol = _symbol;\n\n        DescriptionChanged(name, symbol);\n    }\n\n    /**\n     * @dev Prevents further changes to name and symbol\n     */\n    function finalizeDescription()\n        public\n        onlyOwner\n        onlyDescriptionNotFinalized\n    {\n        isDescriptionFinalized = true;\n\n        DescriptionFinalized();\n    }\n}\n",
  "sourcePath": "/home/js/Projects/pc/onlive/onlive-contracts/contracts/token/DescriptiveToken.sol",
  "compiler": {
    "name": "solc",
    "version": "0.4.18+commit.9cf6e910.Emscripten.clang"
  },
  "schemaVersion": "1.0.1",
  "updatedAt": "2018-03-06T17:03:03.114Z"
}