{
  "contractName": "ExternalCrowdsale",
  "abi": [
    {
      "constant": true,
      "inputs": [],
      "name": "endBlock",
      "outputs": [
        {
          "name": "",
          "type": "uint256"
        }
      ],
      "payable": false,
      "stateMutability": "view",
      "type": "function"
    },
    {
      "constant": true,
      "inputs": [],
      "name": "isActive",
      "outputs": [
        {
          "name": "",
          "type": "bool"
        }
      ],
      "payable": false,
      "stateMutability": "view",
      "type": "function"
    },
    {
      "constant": true,
      "inputs": [],
      "name": "startBlock",
      "outputs": [
        {
          "name": "",
          "type": "uint256"
        }
      ],
      "payable": false,
      "stateMutability": "view",
      "type": "function"
    },
    {
      "constant": false,
      "inputs": [
        {
          "name": "paymentId",
          "type": "bytes32"
        },
        {
          "name": "purchaser",
          "type": "address"
        },
        {
          "name": "amount",
          "type": "uint256"
        }
      ],
      "name": "registerPurchase",
      "outputs": [],
      "payable": false,
      "stateMutability": "nonpayable",
      "type": "function"
    },
    {
      "constant": true,
      "inputs": [],
      "name": "owner",
      "outputs": [
        {
          "name": "",
          "type": "address"
        }
      ],
      "payable": false,
      "stateMutability": "view",
      "type": "function"
    },
    {
      "constant": true,
      "inputs": [],
      "name": "availableAmount",
      "outputs": [
        {
          "name": "",
          "type": "uint256"
        }
      ],
      "payable": false,
      "stateMutability": "view",
      "type": "function"
    },
    {
      "constant": true,
      "inputs": [
        {
          "name": "",
          "type": "bytes32"
        }
      ],
      "name": "isPaymentRegistered",
      "outputs": [
        {
          "name": "",
          "type": "bool"
        }
      ],
      "payable": false,
      "stateMutability": "view",
      "type": "function"
    },
    {
      "constant": false,
      "inputs": [
        {
          "name": "_startBlock",
          "type": "uint256"
        },
        {
          "name": "_endBlock",
          "type": "uint256"
        }
      ],
      "name": "scheduleSale",
      "outputs": [],
      "payable": false,
      "stateMutability": "nonpayable",
      "type": "function"
    },
    {
      "constant": false,
      "inputs": [
        {
          "name": "newOwner",
          "type": "address"
        }
      ],
      "name": "transferOwnership",
      "outputs": [],
      "payable": false,
      "stateMutability": "nonpayable",
      "type": "function"
    },
    {
      "constant": true,
      "inputs": [],
      "name": "token",
      "outputs": [
        {
          "name": "",
          "type": "address"
        }
      ],
      "payable": false,
      "stateMutability": "view",
      "type": "function"
    },
    {
      "inputs": [
        {
          "name": "_token",
          "type": "address"
        },
        {
          "name": "_availableAmount",
          "type": "uint256"
        }
      ],
      "payable": false,
      "stateMutability": "nonpayable",
      "type": "constructor"
    },
    {
      "anonymous": false,
      "inputs": [
        {
          "indexed": true,
          "name": "paymentId",
          "type": "bytes32"
        },
        {
          "indexed": true,
          "name": "purchaser",
          "type": "address"
        },
        {
          "indexed": false,
          "name": "amount",
          "type": "uint256"
        }
      ],
      "name": "PurchaseRegistered",
      "type": "event"
    },
    {
      "anonymous": false,
      "inputs": [
        {
          "indexed": false,
          "name": "startBlock",
          "type": "uint256"
        },
        {
          "indexed": false,
          "name": "endBlock",
          "type": "uint256"
        }
      ],
      "name": "SaleScheduled",
      "type": "event"
    },
    {
      "anonymous": false,
      "inputs": [
        {
          "indexed": true,
          "name": "previousOwner",
          "type": "address"
        },
        {
          "indexed": true,
          "name": "newOwner",
          "type": "address"
        }
      ],
      "name": "OwnershipTransferred",
      "type": "event"
    }
  ],
  "bytecode": "0x6060604052341561000f57600080fd5b6040516040806109c483398101604052808051906020019091908051906020019091905050336000806101000a81548173ffffffffffffffffffffffffffffffffffffffff021916908373ffffffffffffffffffffffffffffffffffffffff16021790555081600073ffffffffffffffffffffffffffffffffffffffff168173ffffffffffffffffffffffffffffffffffffffff16141515156100b157600080fd5b81600081141515156100c257600080fd5b83600160006101000a81548173ffffffffffffffffffffffffffffffffffffffff021916908373ffffffffffffffffffffffffffffffffffffffff16021790555082600581905550505050506108a78061011d6000396000f3006060604052600436106100a4576000357c0100000000000000000000000000000000000000000000000000000000900463ffffffff168063083c6323146100a957806322f3e2d4146100d257806348cd4cb1146100ff5780636123218b146101285780638da5cb5b1461017757806391f7cfb9146101cc578063bf748655146101f5578063c5ec05fd14610234578063f2fde38b14610260578063fc0c546a14610299575b600080fd5b34156100b457600080fd5b6100bc6102ee565b6040518082815260200191505060405180910390f35b34156100dd57600080fd5b6100e56102f4565b604051808215151515815260200191505060405180910390f35b341561010a57600080fd5b61011261030f565b6040518082815260200191505060405180910390f35b341561013357600080fd5b61017560048080356000191690602001909190803573ffffffffffffffffffffffffffffffffffffffff16906020019091908035906020019091905050610315565b005b341561018257600080fd5b61018a61059c565b604051808273ffffffffffffffffffffffffffffffffffffffff1673ffffffffffffffffffffffffffffffffffffffff16815260200191505060405180910390f35b34156101d757600080fd5b6101df6105c1565b6040518082815260200191505060405180910390f35b341561020057600080fd5b61021a6004808035600019169060200190919050506105c7565b604051808215151515815260200191505060405180910390f35b341561023f57600080fd5b61025e60048080359060200190919080359060200190919050506105e7565b005b341561026b57600080fd5b610297600480803573ffffffffffffffffffffffffffffffffffffffff169060200190919050506106e7565b005b34156102a457600080fd5b6102ac61083c565b604051808273ffffffffffffffffffffffffffffffffffffffff1673ffffffffffffffffffffffffffffffffffffffff16815260200191505060405180910390f35b60035481565b6000600254431015801561030a57506003544311155b905090565b60025481565b6000809054906101000a900473ffffffffffffffffffffffffffffffffffffffff1673ffffffffffffffffffffffffffffffffffffffff163373ffffffffffffffffffffffffffffffffffffffff1614151561037057600080fd5b6103786102f4565b151561038357600080fd5b81600073ffffffffffffffffffffffffffffffffffffffff168173ffffffffffffffffffffffffffffffffffffffff16141515156103c057600080fd5b81600081141515156103d157600080fd5b8460046000826000191660001916815260200190815260200160002060009054906101000a900460ff1615151561040757600080fd5b83806005541015151561041957600080fd5b600160046000896000191660001916815260200190815260200160002060006101000a81548160ff0219169083151502179055506104628560055461086290919063ffffffff16565b600581905550600160009054906101000a900473ffffffffffffffffffffffffffffffffffffffff1673ffffffffffffffffffffffffffffffffffffffff166340c10f1987876040518363ffffffff167c0100000000000000000000000000000000000000000000000000000000028152600401808373ffffffffffffffffffffffffffffffffffffffff1673ffffffffffffffffffffffffffffffffffffffff16815260200182815260200192505050600060405180830381600087803b151561052c57600080fd5b6102c65a03f1151561053d57600080fd5b5050508573ffffffffffffffffffffffffffffffffffffffff1687600019167fd7800fa2729e3b25b3f52a907e53c74169f21babeb65faba87df4ce101034223876040518082815260200191505060405180910390a350505050505050565b6000809054906101000a900473ffffffffffffffffffffffffffffffffffffffff1681565b60055481565b60046020528060005260406000206000915054906101000a900460ff1681565b6000809054906101000a900473ffffffffffffffffffffffffffffffffffffffff1673ffffffffffffffffffffffffffffffffffffffff163373ffffffffffffffffffffffffffffffffffffffff1614151561064257600080fd5b600060025414151561065357600080fd5b600060035414151561066457600080fd5b816000811415151561067557600080fd5b816000811415151561068657600080fd5b828410151561069457600080fd5b83600281905550826003819055507fda7c0ad4276fe529858f6543ebf8e74c90a43ad4813bcad166c926096d07d8558484604051808381526020018281526020019250505060405180910390a150505050565b6000809054906101000a900473ffffffffffffffffffffffffffffffffffffffff1673ffffffffffffffffffffffffffffffffffffffff163373ffffffffffffffffffffffffffffffffffffffff1614151561074257600080fd5b600073ffffffffffffffffffffffffffffffffffffffff168173ffffffffffffffffffffffffffffffffffffffff161415151561077e57600080fd5b8073ffffffffffffffffffffffffffffffffffffffff166000809054906101000a900473ffffffffffffffffffffffffffffffffffffffff1673ffffffffffffffffffffffffffffffffffffffff167f8be0079c531659141344cd1fd0a4f28419497f9722a3daafe3b4186f6b6457e060405160405180910390a3806000806101000a81548173ffffffffffffffffffffffffffffffffffffffff021916908373ffffffffffffffffffffffffffffffffffffffff16021790555050565b600160009054906101000a900473ffffffffffffffffffffffffffffffffffffffff1681565b600082821115151561087057fe5b8183039050929150505600a165627a7a72305820b8fecb9b8ce6751f7a57681995bec2eebb17e9382965afdbe175c83c09b024990029",
  "source": "pragma solidity 0.4.18;\n\nimport { SafeMath } from \"zeppelin-solidity/contracts/math/SafeMath.sol\";\nimport { Ownable } from \"zeppelin-solidity/contracts/ownership/Ownable.sol\";\n\n\ncontract Mintable {\n    function mint(address to, uint256 amount) public;\n}\n\n\n/**\n * @title Crowdsale for off-chain payment methods\n * @author Jakub Stefanski\n */\ncontract ExternalCrowdsale is Ownable {\n\n    using SafeMath for uint256;\n\n    /**\n     * @dev Address of mintable token instance\n     */\n    Mintable public token;\n\n    /**\n     * @dev Start block of active sale (inclusive). Zero if not scheduled.\n     */\n    uint256 public startBlock;\n\n    /**\n     * @dev End block of active sale (inclusive). Zero if not scheduled.\n     */\n    uint256 public endBlock;\n\n    /**\n     * @dev Indicates whether payment identified by bytes32 id is already registered\n     */\n    mapping (bytes32 => bool) public isPaymentRegistered;\n\n    /**\n     * @dev Current amount of tokens available for sale\n     */\n    uint256 public availableAmount;\n\n    function ExternalCrowdsale(Mintable _token, uint256 _availableAmount)\n        public\n        onlyValid(_token)\n        onlyNotZero(_availableAmount)\n    {\n        token = _token;\n        availableAmount = _availableAmount;\n    }\n\n    /**\n     * @dev Purchase with given payment id registered\n     * @param paymentId bytes32 A unique payment id\n     * @param purchaser address The recipient of the tokens\n     * @param amount uint256 The amount of tokens\n     */\n    event PurchaseRegistered(bytes32 indexed paymentId, address indexed purchaser, uint256 amount);\n\n    /**\n     * @dev Sale scheduled on the given blocks\n     * @param startBlock uint256 The first block of active sale\n     * @param endBlock uint256 The last block of active sale\n     */\n    event SaleScheduled(uint256 startBlock, uint256 endBlock);\n\n    modifier onlySufficientAvailableTokens(uint256 amount) {\n        require(availableAmount >= amount);\n        _;\n    }\n\n    modifier onlyUniquePayment(bytes32 paymentId) {\n        require(!isPaymentRegistered[paymentId]);\n        _;\n    }\n\n    modifier onlyValid(address addr) {\n        require(addr != address(0));\n        _;\n    }\n\n    modifier onlyNotZero(uint256 value) {\n        require(value != 0);\n        _;\n    }\n\n    modifier onlyNotScheduled() {\n        require(startBlock == 0);\n        require(endBlock == 0);\n        _;\n    }\n\n    modifier onlyActive() {\n        require(isActive());\n        _;\n    }\n\n    /**\n     * @dev Schedule sale for given block range\n     * @param _startBlock uint256 The first block of sale\n     * @param _endBlock uint256 The last block of sale\n     */\n    function scheduleSale(uint256 _startBlock, uint256 _endBlock)\n        public\n        onlyOwner\n        onlyNotScheduled\n        onlyNotZero(_startBlock)\n        onlyNotZero(_endBlock)\n    {\n        require(_startBlock < _endBlock);\n\n        startBlock = _startBlock;\n        endBlock = _endBlock;\n\n        SaleScheduled(_startBlock, _endBlock);\n    }\n\n    /**\n     * @dev Register purchase with given payment id\n     * @param paymentId bytes32 A unique payment id\n     * @param purchaser address The recipient of the tokens\n     * @param amount uint256 The amount of tokens\n     */\n    function registerPurchase(bytes32 paymentId, address purchaser, uint256 amount)\n        public\n        onlyOwner\n        onlyActive\n        onlyValid(purchaser)\n        onlyNotZero(amount)\n        onlyUniquePayment(paymentId)\n        onlySufficientAvailableTokens(amount)\n    {\n        isPaymentRegistered[paymentId] = true;\n\n        availableAmount = availableAmount.sub(amount);\n\n        token.mint(purchaser, amount);\n\n        PurchaseRegistered(paymentId, purchaser, amount);\n    }\n\n    /**\n     * @dev Check whether sale is currently active\n     */\n    function isActive() public view returns (bool) {\n        return block.number >= startBlock && block.number <= endBlock;\n    }\n}\n",
  "sourcePath": "/home/js/Projects/pc/onlive/onlive-contracts/contracts/ExternalCrowdsale.sol",
  "compiler": {
    "name": "solc",
    "version": "0.4.18+commit.9cf6e910.Emscripten.clang"
  },
  "schemaVersion": "1.0.1",
  "updatedAt": "2018-01-02T14:35:33.127Z"
}