{
  "contractName": "IcoCrowdsale",
  "abi": [
    {
      "constant": false,
      "inputs": [
        {
          "name": "_wallet",
          "type": "address"
        },
        {
          "name": "_token",
          "type": "address"
        },
        {
          "name": "_availableAmount",
          "type": "uint256"
        },
        {
          "name": "_minValue",
          "type": "uint256"
        },
        {
          "name": "_pricePeriodsStart",
          "type": "uint256[]"
        },
        {
          "name": "_pricePeriodsPrice",
          "type": "uint256[]"
        }
      ],
      "name": "PreIcoCrowdsale",
      "outputs": [],
      "payable": false,
      "stateMutability": "nonpayable",
      "type": "function"
    },
    {
      "constant": false,
      "inputs": [
        {
          "name": "_start",
          "type": "uint256"
        },
        {
          "name": "_end",
          "type": "uint256"
        }
      ],
      "name": "schedule",
      "outputs": [],
      "payable": false,
      "stateMutability": "nonpayable",
      "type": "function"
    },
    {
      "constant": true,
      "inputs": [],
      "name": "isActive",
      "outputs": [
        {
          "name": "",
          "type": "bool"
        }
      ],
      "payable": false,
      "stateMutability": "view",
      "type": "function"
    },
    {
      "constant": true,
      "inputs": [
        {
          "name": "",
          "type": "bytes32"
        }
      ],
      "name": "isContributionRegistered",
      "outputs": [
        {
          "name": "",
          "type": "bool"
        }
      ],
      "payable": false,
      "stateMutability": "view",
      "type": "function"
    },
    {
      "constant": true,
      "inputs": [],
      "name": "wallet",
      "outputs": [
        {
          "name": "",
          "type": "address"
        }
      ],
      "payable": false,
      "stateMutability": "view",
      "type": "function"
    },
    {
      "constant": false,
      "inputs": [
        {
          "name": "contributor",
          "type": "address"
        }
      ],
      "name": "contribute",
      "outputs": [
        {
          "name": "",
          "type": "uint256"
        }
      ],
      "payable": true,
      "stateMutability": "payable",
      "type": "function"
    },
    {
      "constant": true,
      "inputs": [],
      "name": "isScheduled",
      "outputs": [
        {
          "name": "",
          "type": "bool"
        }
      ],
      "payable": false,
      "stateMutability": "view",
      "type": "function"
    },
    {
      "constant": true,
      "inputs": [],
      "name": "owner",
      "outputs": [
        {
          "name": "",
          "type": "address"
        }
      ],
      "payable": false,
      "stateMutability": "view",
      "type": "function"
    },
    {
      "constant": true,
      "inputs": [],
      "name": "availableAmount",
      "outputs": [
        {
          "name": "",
          "type": "uint256"
        }
      ],
      "payable": false,
      "stateMutability": "view",
      "type": "function"
    },
    {
      "constant": true,
      "inputs": [],
      "name": "minValue",
      "outputs": [
        {
          "name": "",
          "type": "uint256"
        }
      ],
      "payable": false,
      "stateMutability": "view",
      "type": "function"
    },
    {
      "constant": true,
      "inputs": [],
      "name": "start",
      "outputs": [
        {
          "name": "",
          "type": "uint256"
        }
      ],
      "payable": false,
      "stateMutability": "view",
      "type": "function"
    },
    {
      "constant": true,
      "inputs": [],
      "name": "end",
      "outputs": [
        {
          "name": "",
          "type": "uint256"
        }
      ],
      "payable": false,
      "stateMutability": "view",
      "type": "function"
    },
    {
      "constant": false,
      "inputs": [
        {
          "name": "newOwner",
          "type": "address"
        }
      ],
      "name": "transferOwnership",
      "outputs": [],
      "payable": false,
      "stateMutability": "nonpayable",
      "type": "function"
    },
    {
      "constant": true,
      "inputs": [
        {
          "name": "value",
          "type": "uint256"
        }
      ],
      "name": "calculateContribution",
      "outputs": [
        {
          "name": "",
          "type": "uint256"
        }
      ],
      "payable": false,
      "stateMutability": "view",
      "type": "function"
    },
    {
      "constant": false,
      "inputs": [
        {
          "name": "id",
          "type": "bytes32"
        },
        {
          "name": "contributor",
          "type": "address"
        },
        {
          "name": "amount",
          "type": "uint256"
        }
      ],
      "name": "registerContribution",
      "outputs": [],
      "payable": false,
      "stateMutability": "nonpayable",
      "type": "function"
    },
    {
      "constant": true,
      "inputs": [],
      "name": "token",
      "outputs": [
        {
          "name": "",
          "type": "address"
        }
      ],
      "payable": false,
      "stateMutability": "view",
      "type": "function"
    },
    {
      "constant": true,
      "inputs": [
        {
          "name": "",
          "type": "uint256"
        }
      ],
      "name": "pricePeriods",
      "outputs": [
        {
          "name": "start",
          "type": "uint256"
        },
        {
          "name": "price",
          "type": "uint256"
        }
      ],
      "payable": false,
      "stateMutability": "view",
      "type": "function"
    },
    {
      "payable": true,
      "stateMutability": "payable",
      "type": "fallback"
    },
    {
      "anonymous": false,
      "inputs": [
        {
          "indexed": true,
          "name": "contributor",
          "type": "address"
        },
        {
          "indexed": false,
          "name": "value",
          "type": "uint256"
        },
        {
          "indexed": false,
          "name": "amount",
          "type": "uint256"
        }
      ],
      "name": "ContributionAccepted",
      "type": "event"
    },
    {
      "anonymous": false,
      "inputs": [
        {
          "indexed": true,
          "name": "id",
          "type": "bytes32"
        },
        {
          "indexed": true,
          "name": "contributor",
          "type": "address"
        },
        {
          "indexed": false,
          "name": "amount",
          "type": "uint256"
        }
      ],
      "name": "ContributionRegistered",
      "type": "event"
    },
    {
      "anonymous": false,
      "inputs": [
        {
          "indexed": false,
          "name": "start",
          "type": "uint256"
        },
        {
          "indexed": false,
          "name": "end",
          "type": "uint256"
        }
      ],
      "name": "Scheduled",
      "type": "event"
    },
    {
      "anonymous": false,
      "inputs": [
        {
          "indexed": true,
          "name": "previousOwner",
          "type": "address"
        },
        {
          "indexed": true,
          "name": "newOwner",
          "type": "address"
        }
      ],
      "name": "OwnershipTransferred",
      "type": "event"
    }
  ],
  "bytecode": "0x6060604052336000806101000a81548173ffffffffffffffffffffffffffffffffffffffff021916908373ffffffffffffffffffffffffffffffffffffffff160217905550611178806100536000396000f3006060604052600436106100f1576000357c0100000000000000000000000000000000000000000000000000000000900463ffffffff1680631c44bd59146100fe5780631d9b1d6f146101e857806322f3e2d4146102145780633c2efb2214610241578063521eb2731461028057806373e888fd146102d55780637ee80d17146103175780638da5cb5b1461034457806391f7cfb914610399578063963e63c7146103c2578063be9a6555146103eb578063efbe1c1c14610414578063f2fde38b1461043d578063f658b1d514610476578063f8d578f0146104ad578063fc0c546a146104fc578063fddd26de14610551575b6100fb333461058f565b50005b341561010957600080fd5b6101e6600480803573ffffffffffffffffffffffffffffffffffffffff1690602001909190803573ffffffffffffffffffffffffffffffffffffffff1690602001909190803590602001909190803590602001909190803590602001908201803590602001908080602002602001604051908101604052809392919081815260200183836020028082843782019150505050505091908035906020019082018035906020019080806020026020016040519081016040528093929190818152602001838360200280828437820191505050505050919050506106cd565b005b34156101f357600080fd5b6102126004808035906020019091908035906020019091905050610823565b005b341561021f57600080fd5b610227610915565b604051808215151515815260200191505060405180910390f35b341561024c57600080fd5b610266600480803560001916906020019091905050610930565b604051808215151515815260200191505060405180910390f35b341561028b57600080fd5b610293610950565b604051808273ffffffffffffffffffffffffffffffffffffffff1673ffffffffffffffffffffffffffffffffffffffff16815260200191505060405180910390f35b610301600480803573ffffffffffffffffffffffffffffffffffffffff16906020019091905050610976565b6040518082815260200191505060405180910390f35b341561032257600080fd5b61032a610989565b604051808215151515815260200191505060405180910390f35b341561034f57600080fd5b6103576109a3565b604051808273ffffffffffffffffffffffffffffffffffffffff1673ffffffffffffffffffffffffffffffffffffffff16815260200191505060405180910390f35b34156103a457600080fd5b6103ac6109c8565b6040518082815260200191505060405180910390f35b34156103cd57600080fd5b6103d56109ce565b6040518082815260200191505060405180910390f35b34156103f657600080fd5b6103fe6109d4565b6040518082815260200191505060405180910390f35b341561041f57600080fd5b6104276109da565b6040518082815260200191505060405180910390f35b341561044857600080fd5b610474600480803573ffffffffffffffffffffffffffffffffffffffff169060200190919050506109e0565b005b341561048157600080fd5b6104976004808035906020019091905050610b35565b6040518082815260200191505060405180910390f35b34156104b857600080fd5b6104fa60048080356000191690602001909190803573ffffffffffffffffffffffffffffffffffffffff16906020019091908035906020019091905050610c2f565b005b341561050757600080fd5b61050f610dba565b604051808273ffffffffffffffffffffffffffffffffffffffff1673ffffffffffffffffffffffffffffffffffffffff16815260200191505060405180910390f35b341561055c57600080fd5b6105726004808035906020019091905050610de0565b604051808381526020018281526020019250505060405180910390f35b60008061059a610915565b15156105a557600080fd5b83600073ffffffffffffffffffffffffffffffffffffffff168173ffffffffffffffffffffffffffffffffffffffff16141515156105e257600080fd5b8360065481101515156105f457600080fd5b6105fd85610b35565b92506106098684610e13565b600360009054906101000a900473ffffffffffffffffffffffffffffffffffffffff1673ffffffffffffffffffffffffffffffffffffffff166108fc869081150290604051600060405180830381858888f19350505050151561066b57600080fd5b8573ffffffffffffffffffffffffffffffffffffffff167fc82bd2657a86085d10f487c20f5c22d24b8031e8d43be961bfec4ee100df27ba8685604051808381526020018281526020019250505060405180910390a282935050505092915050565b85600073ffffffffffffffffffffffffffffffffffffffff168173ffffffffffffffffffffffffffffffffffffffff161415151561070a57600080fd5b85600073ffffffffffffffffffffffffffffffffffffffff168173ffffffffffffffffffffffffffffffffffffffff161415151561074757600080fd5b856000811415151561075857600080fd5b84516000811415151561076a57600080fd5b84516000811415151561077c57600080fd5b8a600360006101000a81548173ffffffffffffffffffffffffffffffffffffffff021916908373ffffffffffffffffffffffffffffffffffffffff16021790555089600460006101000a81548173ffffffffffffffffffffffffffffffffffffffff021916908373ffffffffffffffffffffffffffffffffffffffff16021790555088600581905550876006819055506108168787610f1d565b5050505050505050505050565b6000809054906101000a900473ffffffffffffffffffffffffffffffffffffffff1673ffffffffffffffffffffffffffffffffffffffff163373ffffffffffffffffffffffffffffffffffffffff1614151561087e57600080fd5b610886610989565b15151561089257600080fd5b81600081141515156108a357600080fd5b81600081141515156108b457600080fd5b82841015156108c257600080fd5b83600181905550826002819055507feb869b8b503112df6f227389651736ee39966235838a652775ed23fddd087f8f8484604051808381526020018281526020019250505060405180910390a150505050565b6000600154421015801561092b57506002544211155b905090565b60076020528060005260406000206000915054906101000a900460ff1681565b600360009054906101000a900473ffffffffffffffffffffffffffffffffffffffff1681565b6000610982823461058f565b9050919050565b60008060015411801561099e57506000600254115b905090565b6000809054906101000a900473ffffffffffffffffffffffffffffffffffffffff1681565b60055481565b60065481565b60015481565b60025481565b6000809054906101000a900473ffffffffffffffffffffffffffffffffffffffff1673ffffffffffffffffffffffffffffffffffffffff163373ffffffffffffffffffffffffffffffffffffffff16141515610a3b57600080fd5b600073ffffffffffffffffffffffffffffffffffffffff168173ffffffffffffffffffffffffffffffffffffffff1614151515610a7757600080fd5b8073ffffffffffffffffffffffffffffffffffffffff166000809054906101000a900473ffffffffffffffffffffffffffffffffffffffff1673ffffffffffffffffffffffffffffffffffffffff167f8be0079c531659141344cd1fd0a4f28419497f9722a3daafe3b4186f6b6457e060405160405180910390a3806000806101000a81548173ffffffffffffffffffffffffffffffffffffffff021916908373ffffffffffffffffffffffffffffffffffffffff16021790555050565b6000610c2860086000815481101515610b4a57fe5b906000526020600020906002020160010154610c1a600460009054906101000a900473ffffffffffffffffffffffffffffffffffffffff1673ffffffffffffffffffffffffffffffffffffffff1663313ce5676000604051602001526040518163ffffffff167c0100000000000000000000000000000000000000000000000000000000028152600401602060405180830381600087803b1515610bed57600080fd5b6102c65a03f11515610bfe57600080fd5b50505060405180519050600a0a8561105890919063ffffffff16565b61109390919063ffffffff16565b9050919050565b6000809054906101000a900473ffffffffffffffffffffffffffffffffffffffff1673ffffffffffffffffffffffffffffffffffffffff163373ffffffffffffffffffffffffffffffffffffffff16141515610c8a57600080fd5b610c92610915565b1515610c9d57600080fd5b81600073ffffffffffffffffffffffffffffffffffffffff168173ffffffffffffffffffffffffffffffffffffffff1614151515610cda57600080fd5b8160008114151515610ceb57600080fd5b8460076000826000191660001916815260200190815260200160002060009054906101000a900460ff16151515610d2157600080fd5b600160076000886000191660001916815260200190815260200160002060006101000a81548160ff021916908315150217905550610d5f8585610e13565b8473ffffffffffffffffffffffffffffffffffffffff1686600019167f1d978f9e1df3910a137d9fde0320c164e817c01d8142a2127d9a381e1ac67206866040518082815260200191505060405180910390a3505050505050565b600460009054906101000a900473ffffffffffffffffffffffffffffffffffffffff1681565b600881815481101515610def57fe5b90600052602060002090600202016000915090508060000154908060010154905082565b808060055410151515610e2557600080fd5b610e3a826005546110ae90919063ffffffff16565b600581905550600460009054906101000a900473ffffffffffffffffffffffffffffffffffffffff1673ffffffffffffffffffffffffffffffffffffffff166340c10f1984846040518363ffffffff167c0100000000000000000000000000000000000000000000000000000000028152600401808373ffffffffffffffffffffffffffffffffffffffff1673ffffffffffffffffffffffffffffffffffffffff16815260200182815260200192505050600060405180830381600087803b1515610f0457600080fd5b6102c65a03f11515610f1557600080fd5b505050505050565b600081518351141515610f2f57600080fd5b60086000610f3d91906110c7565b600090505b8251811015611053576000811115610f9d578281815181101515610f6257fe5b90602001906020020151600860018303815481101515610f7e57fe5b906000526020600020906002020160000154111515610f9c57600080fd5b5b60008282815181101515610fad57fe5b90602001906020020151111515610fc357600080fd5b60088054806001018281610fd791906110eb565b916000526020600020906002020160006040805190810160405280878681518110151561100057fe5b906020019060200201518152602001868681518110151561101d57fe5b90602001906020020151815250909190915060008201518160000155602082015181600101555050508080600101915050610f42565b505050565b600080600084141561106d576000915061108c565b828402905082848281151561107e57fe5b0414151561108857fe5b8091505b5092915050565b60008082848115156110a157fe5b0490508091505092915050565b60008282111515156110bc57fe5b818303905092915050565b50805460008255600202906000526020600020908101906110e8919061111d565b50565b81548183558181151161111857600202816002028360005260206000209182019101611117919061111d565b5b505050565b61114991905b8082111561114557600080820160009055600182016000905550600201611123565b5090565b905600a165627a7a72305820dd9f2c572dd81caf52ba2aed4a863e6f57554bddaaacb7f0acae2c2f3cef26f10029",
  "source": "pragma solidity 0.4.18;\n\nimport { SafeMath } from \"zeppelin-solidity/contracts/math/SafeMath.sol\";\nimport { TimeSchedulable } from \"./crowdsale/TimeSchedulable.sol\";\n\n\n/**\n * @title Mintable token interface\n * @author Jakub Stefanski (https://github.com/jstefanski)\n */\ncontract Mintable {\n    uint256 public decimals;\n\n    function mint(address to, uint256 amount) public;\n}\n\n\n/**\n * @title ICO Crowdsale with price depending on timestamp and limited supply\n * @author Jakub Stefanski (https://github.com/jstefanski)\n * @author Dominik Króliczek (https://github.com/krolis)\n */\ncontract IcoCrowdsale is TimeSchedulable {\n\n    using SafeMath for uint256;\n\n    /**\n     * @dev Token price period\n     */\n    struct PricePeriod {\n        //todo consider timetamp as 32 bit and price 224 bit uints\n        /**\n        * @dev Price period start timestamp, inclusive\n        */\n        uint256 start;\n        /**\n        * @dev Price of token in Wei\n        */\n        uint256 price;\n    }\n\n    /**\n     * @dev Address of contribution wallet\n     */\n    address public wallet;\n\n    /**\n     * @dev Address of mintable token instance\n     */\n    Mintable public token;\n\n    /**\n     * @dev Current amount of tokens available for sale\n     */\n    uint256 public availableAmount;\n\n    /**\n     * @dev Minimum ETH value sent as contribution\n     */\n    uint256 public minValue;\n\n    /**\n     * @dev Indicates whether contribution identified by bytes32 id is already registered\n     */\n    mapping (bytes32 => bool) public isContributionRegistered;\n\n    PricePeriod[] public pricePeriods;\n\n    function PreIcoCrowdsale(\n        address _wallet,\n        Mintable _token,\n        uint256 _availableAmount,\n        uint256 _minValue,\n        uint256[] _pricePeriodsStart,\n        uint256[] _pricePeriodsPrice\n    )\n        public\n        onlyValid(_wallet)\n        onlyValid(_token)\n        onlyNotZero(_availableAmount)\n        onlyNotZero(_pricePeriodsStart.length) // todo consider to remove this and require only while schedule\n        onlyNotZero(_pricePeriodsPrice.length) // todo consider to remove this and require only while schedule\n    {\n        wallet = _wallet;\n        token = _token;\n        availableAmount = _availableAmount;\n        minValue = _minValue;\n\n        setPrices(_pricePeriodsStart, _pricePeriodsPrice);\n    }\n\n    function setPrices(uint256[] _pricePeriodsStart, uint256[] _pricePeriodsPrice)\n        internal\n    {\n        require(_pricePeriodsStart.length == _pricePeriodsPrice.length);\n        delete pricePeriods;\n        for(uint256 i  = 0; i < _pricePeriodsStart.length; i++){\n            if(i > 0){\n                require(pricePeriods[i-1].start > _pricePeriodsStart[i]);\n            }\n            require(_pricePeriodsPrice[i] > 0);\n            pricePeriods.push(\n                PricePeriod({\n                    start: _pricePeriodsStart[i],\n                    price: _pricePeriodsPrice[i]\n                })\n            );\n        }\n    }\n\n    /**\n     * @dev Contribution is accepted\n     * @param contributor address The recipient of the tokens\n     * @param value uint256 The amount of contributed ETH\n     * @param amount uint256 The amount of tokens\n     */\n    event ContributionAccepted(address indexed contributor, uint256 value, uint256 amount);\n\n    /**\n     * @dev Off-chain contribution registered\n     * @param id bytes32 A unique contribution id\n     * @param contributor address The recipient of the tokens\n     * @param amount uint256 The amount of tokens\n     */\n    event ContributionRegistered(bytes32 indexed id, address indexed contributor, uint256 amount);\n\n    modifier onlyValid(address addr) {\n        require(addr != address(0));\n        _;\n    }\n\n    modifier onlySufficientValue(uint256 value) {\n        require(value >= minValue);\n        _;\n    }\n\n    modifier onlySufficientAvailableTokens(uint256 amount) {\n        require(availableAmount >= amount);\n        _;\n    }\n\n    modifier onlyUniqueContribution(bytes32 id) {\n        require(!isContributionRegistered[id]);\n        _;\n    }\n\n    /**\n     * @dev Accept ETH transfers as contributions\n     */\n    function () public payable {\n        acceptContribution(msg.sender, msg.value);\n    }\n\n    /**\n     * @dev Contribute ETH in exchange for tokens\n     * @param contributor address The address that receives tokens\n     */\n    function contribute(address contributor) public payable returns (uint256) {\n        return acceptContribution(contributor, msg.value);\n    }\n\n    /**\n     * @dev Register contribution with given id\n     * @param id bytes32 A unique contribution id\n     * @param contributor address The recipient of the tokens\n     * @param amount uint256 The amount of tokens\n     */\n    function registerContribution(bytes32 id, address contributor, uint256 amount)\n        public\n        onlyOwner\n        onlyActive\n        onlyValid(contributor)\n        onlyNotZero(amount)\n        onlyUniqueContribution(id)\n    {\n        isContributionRegistered[id] = true;\n        mintTokens(contributor, amount);\n\n        ContributionRegistered(id, contributor, amount);\n    }\n\n    /**\n     * @dev Calculate amount of ONL tokens received for given ETH value\n     * @param value uint256 Contribution value in ETH\n     * @return uint256 Amount of received ONL tokens\n     */\n    function calculateContribution(uint256 value) public view returns (uint256) {\n        return value.mul(10 ** token.decimals()).div(pricePeriods[0].price);\n    }\n\n    function acceptContribution(address contributor, uint256 value)\n        private\n        onlyActive\n        onlyValid(contributor)\n        onlySufficientValue(value)\n        returns (uint256)\n    {\n        uint256 amount = calculateContribution(value);\n        mintTokens(contributor, amount);\n\n        wallet.transfer(value);\n\n        ContributionAccepted(contributor, value, amount);\n\n        return amount;\n    }\n\n    function mintTokens(address to, uint256 amount)\n        private\n        onlySufficientAvailableTokens(amount)\n    {\n        availableAmount = availableAmount.sub(amount);\n        token.mint(to, amount);\n    }\n}\n",
  "sourcePath": "/home/domino/blok/onlive-contracts/contracts/IcoCrowdsale.sol",
  "compiler": {
    "name": "solc",
    "version": "0.4.18+commit.9cf6e910.Emscripten.clang"
  },
  "schemaVersion": "1.0.1",
  "updatedAt": "2018-02-09T15:04:49.175Z"
}