{
  "contractName": "IcoCrowdsale",
  "abi": [
    {
      "constant": false,
      "inputs": [],
      "name": "burnRemains",
      "outputs": [],
      "payable": false,
      "stateMutability": "nonpayable",
      "type": "function"
    },
    {
      "constant": true,
      "inputs": [],
      "name": "currentTierId",
      "outputs": [
        {
          "name": "",
          "type": "uint256"
        }
      ],
      "payable": false,
      "stateMutability": "view",
      "type": "function"
    },
    {
      "constant": true,
      "inputs": [],
      "name": "endBlock",
      "outputs": [
        {
          "name": "",
          "type": "uint256"
        }
      ],
      "payable": false,
      "stateMutability": "view",
      "type": "function"
    },
    {
      "constant": true,
      "inputs": [
        {
          "name": "blockNumber",
          "type": "uint256"
        }
      ],
      "name": "getTierId",
      "outputs": [
        {
          "name": "",
          "type": "uint256"
        }
      ],
      "payable": false,
      "stateMutability": "view",
      "type": "function"
    },
    {
      "constant": true,
      "inputs": [],
      "name": "isActive",
      "outputs": [
        {
          "name": "",
          "type": "bool"
        }
      ],
      "payable": false,
      "stateMutability": "view",
      "type": "function"
    },
    {
      "constant": true,
      "inputs": [
        {
          "name": "",
          "type": "bytes32"
        }
      ],
      "name": "isContributionRegistered",
      "outputs": [
        {
          "name": "",
          "type": "bool"
        }
      ],
      "payable": false,
      "stateMutability": "view",
      "type": "function"
    },
    {
      "constant": false,
      "inputs": [
        {
          "name": "_startBlock",
          "type": "uint256"
        },
        {
          "name": "_price",
          "type": "uint256"
        }
      ],
      "name": "scheduleTier",
      "outputs": [],
      "payable": false,
      "stateMutability": "nonpayable",
      "type": "function"
    },
    {
      "constant": true,
      "inputs": [],
      "name": "wallet",
      "outputs": [
        {
          "name": "",
          "type": "address"
        }
      ],
      "payable": false,
      "stateMutability": "view",
      "type": "function"
    },
    {
      "constant": false,
      "inputs": [
        {
          "name": "contributor",
          "type": "address"
        }
      ],
      "name": "contribute",
      "outputs": [
        {
          "name": "",
          "type": "uint256"
        }
      ],
      "payable": true,
      "stateMutability": "payable",
      "type": "function"
    },
    {
      "constant": true,
      "inputs": [],
      "name": "isFinished",
      "outputs": [
        {
          "name": "",
          "type": "bool"
        }
      ],
      "payable": false,
      "stateMutability": "view",
      "type": "function"
    },
    {
      "constant": true,
      "inputs": [],
      "name": "listTiers",
      "outputs": [
        {
          "name": "startBlocks",
          "type": "uint256[]"
        },
        {
          "name": "endBlocks",
          "type": "uint256[]"
        },
        {
          "name": "prices",
          "type": "uint256[]"
        }
      ],
      "payable": false,
      "stateMutability": "view",
      "type": "function"
    },
    {
      "constant": true,
      "inputs": [],
      "name": "isFinalized",
      "outputs": [
        {
          "name": "",
          "type": "bool"
        }
      ],
      "payable": false,
      "stateMutability": "view",
      "type": "function"
    },
    {
      "constant": true,
      "inputs": [],
      "name": "owner",
      "outputs": [
        {
          "name": "",
          "type": "address"
        }
      ],
      "payable": false,
      "stateMutability": "view",
      "type": "function"
    },
    {
      "constant": true,
      "inputs": [],
      "name": "availableAmount",
      "outputs": [
        {
          "name": "",
          "type": "uint256"
        }
      ],
      "payable": false,
      "stateMutability": "view",
      "type": "function"
    },
    {
      "constant": true,
      "inputs": [],
      "name": "minValue",
      "outputs": [
        {
          "name": "",
          "type": "uint256"
        }
      ],
      "payable": false,
      "stateMutability": "view",
      "type": "function"
    },
    {
      "constant": true,
      "inputs": [],
      "name": "currentPrice",
      "outputs": [
        {
          "name": "",
          "type": "uint256"
        }
      ],
      "payable": false,
      "stateMutability": "view",
      "type": "function"
    },
    {
      "constant": false,
      "inputs": [
        {
          "name": "_endBlock",
          "type": "uint256"
        },
        {
          "name": "_availableAmount",
          "type": "uint256"
        }
      ],
      "name": "finalize",
      "outputs": [],
      "payable": false,
      "stateMutability": "nonpayable",
      "type": "function"
    },
    {
      "constant": false,
      "inputs": [
        {
          "name": "newOwner",
          "type": "address"
        }
      ],
      "name": "transferOwnership",
      "outputs": [],
      "payable": false,
      "stateMutability": "nonpayable",
      "type": "function"
    },
    {
      "constant": true,
      "inputs": [
        {
          "name": "value",
          "type": "uint256"
        }
      ],
      "name": "calculateContribution",
      "outputs": [
        {
          "name": "",
          "type": "uint256"
        }
      ],
      "payable": false,
      "stateMutability": "view",
      "type": "function"
    },
    {
      "constant": false,
      "inputs": [
        {
          "name": "id",
          "type": "bytes32"
        },
        {
          "name": "contributor",
          "type": "address"
        },
        {
          "name": "amount",
          "type": "uint256"
        }
      ],
      "name": "registerContribution",
      "outputs": [],
      "payable": false,
      "stateMutability": "nonpayable",
      "type": "function"
    },
    {
      "constant": true,
      "inputs": [],
      "name": "token",
      "outputs": [
        {
          "name": "",
          "type": "address"
        }
      ],
      "payable": false,
      "stateMutability": "view",
      "type": "function"
    },
    {
      "inputs": [
        {
          "name": "_wallet",
          "type": "address"
        },
        {
          "name": "_token",
          "type": "address"
        },
        {
          "name": "_minValue",
          "type": "uint256"
        }
      ],
      "payable": false,
      "stateMutability": "nonpayable",
      "type": "constructor"
    },
    {
      "payable": true,
      "stateMutability": "payable",
      "type": "fallback"
    },
    {
      "anonymous": false,
      "inputs": [
        {
          "indexed": true,
          "name": "contributor",
          "type": "address"
        },
        {
          "indexed": false,
          "name": "value",
          "type": "uint256"
        },
        {
          "indexed": false,
          "name": "amount",
          "type": "uint256"
        }
      ],
      "name": "ContributionAccepted",
      "type": "event"
    },
    {
      "anonymous": false,
      "inputs": [
        {
          "indexed": true,
          "name": "id",
          "type": "bytes32"
        },
        {
          "indexed": true,
          "name": "contributor",
          "type": "address"
        },
        {
          "indexed": false,
          "name": "amount",
          "type": "uint256"
        }
      ],
      "name": "ContributionRegistered",
      "type": "event"
    },
    {
      "anonymous": false,
      "inputs": [
        {
          "indexed": false,
          "name": "startBlock",
          "type": "uint256"
        },
        {
          "indexed": false,
          "name": "price",
          "type": "uint256"
        }
      ],
      "name": "TierScheduled",
      "type": "event"
    },
    {
      "anonymous": false,
      "inputs": [
        {
          "indexed": false,
          "name": "endBlock",
          "type": "uint256"
        },
        {
          "indexed": false,
          "name": "availableAmount",
          "type": "uint256"
        }
      ],
      "name": "Finalized",
      "type": "event"
    },
    {
      "anonymous": false,
      "inputs": [
        {
          "indexed": false,
          "name": "burnedAmount",
          "type": "uint256"
        }
      ],
      "name": "RemainsBurned",
      "type": "event"
    },
    {
      "anonymous": false,
      "inputs": [
        {
          "indexed": true,
          "name": "previousOwner",
          "type": "address"
        },
        {
          "indexed": true,
          "name": "newOwner",
          "type": "address"
        }
      ],
      "name": "OwnershipTransferred",
      "type": "event"
    }
  ],
  "bytecode": "0x6060604052341561000f57600080fd5b6040516060806118c883398101604052808051906020019091908051906020019091908051906020019091905050336000806101000a81548173ffffffffffffffffffffffffffffffffffffffff021916908373ffffffffffffffffffffffffffffffffffffffff16021790555082600073ffffffffffffffffffffffffffffffffffffffff168173ffffffffffffffffffffffffffffffffffffffff16141515156100ba57600080fd5b82600073ffffffffffffffffffffffffffffffffffffffff168173ffffffffffffffffffffffffffffffffffffffff16141515156100f757600080fd5b84600160006101000a81548173ffffffffffffffffffffffffffffffffffffffff021916908373ffffffffffffffffffffffffffffffffffffffff16021790555083600260006101000a81548173ffffffffffffffffffffffffffffffffffffffff021916908373ffffffffffffffffffffffffffffffffffffffff160217905550826003819055505050505050611734806101946000396000f30060606040526004361061011c576000357c0100000000000000000000000000000000000000000000000000000000900463ffffffff168062a139011461012957806306e16a361461013e578063083c6323146101675780631c6e38991461019057806322f3e2d4146101c75780633c2efb22146101f457806351349d5f14610233578063521eb2731461025f57806373e888fd146102b45780637b352962146102f65780638b5b4228146103235780638d4e40831461041d5780638da5cb5b1461044a57806391f7cfb91461049f578063963e63c7146104c85780639d1b464a146104f1578063b6013cef1461051a578063f2fde38b14610546578063f658b1d51461057f578063f8d578f0146105b6578063fc0c546a14610605575b610126333461065a565b50005b341561013457600080fd5b61013c610866565b005b341561014957600080fd5b6101516109be565b6040518082815260200191505060405180910390f35b341561017257600080fd5b61017a6109ce565b6040518082815260200191505060405180910390f35b341561019b57600080fd5b6101b160048080359060200190919050506109d4565b6040518082815260200191505060405180910390f35b34156101d257600080fd5b6101da610a37565b604051808215151515815260200191505060405180910390f35b34156101ff57600080fd5b610219600480803560001916906020019091905050610a81565b604051808215151515815260200191505060405180910390f35b341561023e57600080fd5b61025d6004808035906020019091908035906020019091905050610aa1565b005b341561026a57600080fd5b610272610c13565b604051808273ffffffffffffffffffffffffffffffffffffffff1673ffffffffffffffffffffffffffffffffffffffff16815260200191505060405180910390f35b6102e0600480803573ffffffffffffffffffffffffffffffffffffffff16906020019091905050610c39565b6040518082815260200191505060405180910390f35b341561030157600080fd5b610309610c4c565b604051808215151515815260200191505060405180910390f35b341561032e57600080fd5b610336610c65565b60405180806020018060200180602001848103845287818151815260200191508051906020019060200280838360005b83811015610381578082015181840152602081019050610366565b50505050905001848103835286818151815260200191508051906020019060200280838360005b838110156103c35780820151818401526020810190506103a8565b50505050905001848103825285818151815260200191508051906020019060200280838360005b838110156104055780820151818401526020810190506103ea565b50505050905001965050505050505060405180910390f35b341561042857600080fd5b610430610e08565b604051808215151515815260200191505060405180910390f35b341561045557600080fd5b61045d610e14565b604051808273ffffffffffffffffffffffffffffffffffffffff1673ffffffffffffffffffffffffffffffffffffffff16815260200191505060405180910390f35b34156104aa57600080fd5b6104b2610e39565b6040518082815260200191505060405180910390f35b34156104d357600080fd5b6104db610f20565b6040518082815260200191505060405180910390f35b34156104fc57600080fd5b610504610f26565b6040518082815260200191505060405180910390f35b341561052557600080fd5b6105446004808035906020019091908035906020019091905050610f73565b005b341561055157600080fd5b61057d600480803573ffffffffffffffffffffffffffffffffffffffff16906020019091905050611171565b005b341561058a57600080fd5b6105a060048080359060200190919050506112c6565b6040518082815260200191505060405180910390f35b34156105c157600080fd5b61060360048080356000191690602001909190803573ffffffffffffffffffffffffffffffffffffffff169060200190919080359060200190919050506113be565b005b341561061057600080fd5b610618611617565b604051808273ffffffffffffffffffffffffffffffffffffffff1673ffffffffffffffffffffffffffffffffffffffff16815260200191505060405180910390f35b600080610665610a37565b151561067057600080fd5b83600073ffffffffffffffffffffffffffffffffffffffff168173ffffffffffffffffffffffffffffffffffffffff16141515156106ad57600080fd5b8360035481101515156106bf57600080fd5b6106c8856112c6565b9250600260009054906101000a900473ffffffffffffffffffffffffffffffffffffffff1673ffffffffffffffffffffffffffffffffffffffff1663a9059cbb87856040518363ffffffff167c0100000000000000000000000000000000000000000000000000000000028152600401808373ffffffffffffffffffffffffffffffffffffffff1673ffffffffffffffffffffffffffffffffffffffff16815260200182815260200192505050600060405180830381600087803b151561078e57600080fd5b6102c65a03f1151561079f57600080fd5b505050600160009054906101000a900473ffffffffffffffffffffffffffffffffffffffff1673ffffffffffffffffffffffffffffffffffffffff166108fc869081150290604051600060405180830381858888f19350505050151561080457600080fd5b8573ffffffffffffffffffffffffffffffffffffffff167fc82bd2657a86085d10f487c20f5c22d24b8031e8d43be961bfec4ee100df27ba8685604051808381526020018281526020019250505060405180910390a282935050505092915050565b60008060009054906101000a900473ffffffffffffffffffffffffffffffffffffffff1673ffffffffffffffffffffffffffffffffffffffff163373ffffffffffffffffffffffffffffffffffffffff161415156108c357600080fd5b6108cb610c4c565b15156108d657600080fd5b6108de610e39565b9050600260009054906101000a900473ffffffffffffffffffffffffffffffffffffffff1673ffffffffffffffffffffffffffffffffffffffff166342966c68826040518263ffffffff167c010000000000000000000000000000000000000000000000000000000002815260040180828152602001915050600060405180830381600087803b151561097057600080fd5b6102c65a03f1151561098157600080fd5b5050507ff3ef5a589d6b2cbcb14401a0bb2a9e089011f8415ea930fd7dd13ebbafd8573a816040518082815260200191505060405180910390a150565b60006109c9436109d4565b905090565b60065481565b60008060016005805490500390505b600081101515610a2c576005818154811015156109fc57fe5b90600052602060002090600202016000015483101515610a1e57809150610a31565b8080600190039150506109e3565b600091505b50919050565b600080600580549050118015610a6e575060056000815481101515610a5857fe5b9060005260206000209060020201600001544310155b8015610a7c57506006544311155b905090565b60046020528060005260406000206000915054906101000a900460ff1681565b6000809054906101000a900473ffffffffffffffffffffffffffffffffffffffff1673ffffffffffffffffffffffffffffffffffffffff163373ffffffffffffffffffffffffffffffffffffffff16141515610afc57600080fd5b610b04610e08565b151515610b1057600080fd5b8160006005805490501115610b56576005600160058054905003815481101515610b3657fe5b90600052602060002090600202016000015481111515610b5557600080fd5b5b8260008114151515610b6757600080fd5b8260008114151515610b7857600080fd5b60058054806001018281610b8c9190611693565b91600052602060002090600202016000604080519081016040528089815260200188815250909190915060008201518160000155602082015181600101555050507fe910947d2d7e6a3288bd2d48460ebed44b0c73947479e9134142d15c8c3e33018585604051808381526020018281526020019250505060405180910390a15050505050565b600160009054906101000a900473ffffffffffffffffffffffffffffffffffffffff1681565b6000610c45823461065a565b9050919050565b600080600654118015610c60575060065443115b905090565b610c6d6116c5565b610c756116c5565b610c7d6116c5565b6000600580549050604051805910610c925750595b90808252806020026020018201604052509350600580549050604051805910610cb85750595b90808252806020026020018201604052509250600580549050604051805910610cde5750595b90808252806020026020018201604052509150600090505b600580549050811015610e0257600581815481101515610d1257fe5b9060005260206000209060020201600001548482815181101515610d3257fe5b9060200190602002018181525050600581815481101515610d4f57fe5b9060005260206000209060020201600101548282815181101515610d6f57fe5b9060200190602002018181525050600580549050600182011015610dd5576001600560018301815481101515610da157fe5b906000526020600020906002020160000154038382815181101515610dc257fe5b9060200190602002018181525050610df5565b6006548382815181101515610de657fe5b90602001906020020181815250505b8080600101915050610cf6565b50909192565b60008060065411905090565b6000809054906101000a900473ffffffffffffffffffffffffffffffffffffffff1681565b6000600260009054906101000a900473ffffffffffffffffffffffffffffffffffffffff1673ffffffffffffffffffffffffffffffffffffffff166370a08231306000604051602001526040518263ffffffff167c0100000000000000000000000000000000000000000000000000000000028152600401808273ffffffffffffffffffffffffffffffffffffffff1673ffffffffffffffffffffffffffffffffffffffff168152602001915050602060405180830381600087803b1515610f0057600080fd5b6102c65a03f11515610f1157600080fd5b50505060405180519050905090565b60035481565b60008060006005805490501115610f6a57610f40436109d4565b9050600581815481101515610f5157fe5b9060005260206000209060020201600101549150610f6f565b600091505b5090565b6000809054906101000a900473ffffffffffffffffffffffffffffffffffffffff1673ffffffffffffffffffffffffffffffffffffffff163373ffffffffffffffffffffffffffffffffffffffff16141515610fce57600080fd5b610fd6610e08565b151515610fe257600080fd5b6000600580549050111515610ff657600080fd5b816000600580549050111561103c57600560016005805490500381548110151561101c57fe5b9060005260206000209060020201600001548111151561103b57600080fd5b5b816000811415151561104d57600080fd5b83600681905550600260009054906101000a900473ffffffffffffffffffffffffffffffffffffffff1673ffffffffffffffffffffffffffffffffffffffff166340c10f1930856040518363ffffffff167c0100000000000000000000000000000000000000000000000000000000028152600401808373ffffffffffffffffffffffffffffffffffffffff1673ffffffffffffffffffffffffffffffffffffffff16815260200182815260200192505050600060405180830381600087803b151561111857600080fd5b6102c65a03f1151561112957600080fd5b5050507fb968440accd1ce5fa60b00de8bb8d8487eb2fda3c3701fb30fea3f69aa910a488484604051808381526020018281526020019250505060405180910390a150505050565b6000809054906101000a900473ffffffffffffffffffffffffffffffffffffffff1673ffffffffffffffffffffffffffffffffffffffff163373ffffffffffffffffffffffffffffffffffffffff161415156111cc57600080fd5b600073ffffffffffffffffffffffffffffffffffffffff168173ffffffffffffffffffffffffffffffffffffffff161415151561120857600080fd5b8073ffffffffffffffffffffffffffffffffffffffff166000809054906101000a900473ffffffffffffffffffffffffffffffffffffffff1673ffffffffffffffffffffffffffffffffffffffff167f8be0079c531659141344cd1fd0a4f28419497f9722a3daafe3b4186f6b6457e060405160405180910390a3806000806101000a81548173ffffffffffffffffffffffffffffffffffffffff021916908373ffffffffffffffffffffffffffffffffffffffff16021790555050565b6000806112d1610f26565b905060008111156113b3576113ac8161139e600260009054906101000a900473ffffffffffffffffffffffffffffffffffffffff1673ffffffffffffffffffffffffffffffffffffffff1663313ce5676000604051602001526040518163ffffffff167c0100000000000000000000000000000000000000000000000000000000028152600401602060405180830381600087803b151561137157600080fd5b6102c65a03f1151561138257600080fd5b50505060405180519050600a0a8661163d90919063ffffffff16565b61167890919063ffffffff16565b91506113b8565b600091505b50919050565b6000809054906101000a900473ffffffffffffffffffffffffffffffffffffffff1673ffffffffffffffffffffffffffffffffffffffff163373ffffffffffffffffffffffffffffffffffffffff1614151561141957600080fd5b611421610a37565b151561142c57600080fd5b81600073ffffffffffffffffffffffffffffffffffffffff168173ffffffffffffffffffffffffffffffffffffffff161415151561146957600080fd5b816000811415151561147a57600080fd5b8460046000826000191660001916815260200190815260200160002060009054906101000a900460ff161515156114b057600080fd5b600160046000886000191660001916815260200190815260200160002060006101000a81548160ff021916908315150217905550600260009054906101000a900473ffffffffffffffffffffffffffffffffffffffff1673ffffffffffffffffffffffffffffffffffffffff1663a9059cbb86866040518363ffffffff167c0100000000000000000000000000000000000000000000000000000000028152600401808373ffffffffffffffffffffffffffffffffffffffff1673ffffffffffffffffffffffffffffffffffffffff16815260200182815260200192505050600060405180830381600087803b15156115a857600080fd5b6102c65a03f115156115b957600080fd5b5050508473ffffffffffffffffffffffffffffffffffffffff1686600019167f1d978f9e1df3910a137d9fde0320c164e817c01d8142a2127d9a381e1ac67206866040518082815260200191505060405180910390a3505050505050565b600260009054906101000a900473ffffffffffffffffffffffffffffffffffffffff1681565b60008060008414156116525760009150611671565b828402905082848281151561166357fe5b0414151561166d57fe5b8091505b5092915050565b600080828481151561168657fe5b0490508091505092915050565b8154818355818115116116c0576002028160020283600052602060002091820191016116bf91906116d9565b5b505050565b602060405190810160405280600081525090565b61170591905b80821115611701576000808201600090556001820160009055506002016116df565b5090565b905600a165627a7a72305820fd8f0217f45feb73023d02425655c5165de8eb038c3143181598b02989e2e96e0029",
  "source": "pragma solidity 0.4.18;\n\nimport { SafeMath } from \"zeppelin-solidity/contracts/math/SafeMath.sol\";\nimport { Ownable } from \"zeppelin-solidity/contracts/ownership/Ownable.sol\";\n\n\n/**\n * @title Token interface compatible with ICO Crowdsale\n * @author Jakub Stefanski (https://github.com/jstefanski)\n * @author Wojciech Harzowski (https://github.com/harzo)\n * @author Dominik Kroliczek (https://github.com/kruligh)\n */\ncontract IcoToken {\n    uint256 public decimals;\n\n    function transfer(address to, uint256 amount) public;\n    function mint(address to, uint256 amount) public;\n    function burn(uint256 amount) public;\n\n    function balanceOf(address who) public view returns (uint256);\n}\n\n\n/**\n * @title ICO Crowdsale with multiple price tiers and limited supply\n * @author Jakub Stefanski (https://github.com/jstefanski)\n * @author Wojciech Harzowski (https://github.com/harzo)\n * @author Dominik Kroliczek (https://github.com/kruligh)\n */\ncontract IcoCrowdsale is Ownable {\n\n    using SafeMath for uint256;\n\n    /**\n     * @dev Structure representing price tier\n     */\n    struct Tier {\n        /**\n        * @dev The first block of the tier (inclusive)\n        */\n        uint256 startBlock;\n        /**\n        * @dev Price of token in Wei\n        */\n        uint256 price;\n    }\n\n    /**\n     * @dev Address of contribution wallet\n     */\n    address public wallet;\n\n    /**\n     * @dev Address of compatible token instance\n     */\n    IcoToken public token;\n\n    /**\n     * @dev Minimum ETH value sent as contribution\n     */\n    uint256 public minValue;\n\n    /**\n     * @dev Indicates whether contribution identified by bytes32 id is already registered\n     */\n    mapping (bytes32 => bool) public isContributionRegistered;\n\n    /**\n     * @dev Stores price tiers in chronological order\n     */\n    Tier[] private tiers;\n\n    /**\n    * @dev The last block of crowdsale (inclusive)\n    */\n    uint256 public endBlock;\n\n    modifier onlySufficientValue(uint256 value) {\n        require(value >= minValue);\n        _;\n    }\n\n    modifier onlyUniqueContribution(bytes32 id) {\n        require(!isContributionRegistered[id]);\n        _;\n    }\n\n    modifier onlyActive() {\n        require(isActive());\n        _;\n    }\n\n    modifier onlyFinished() {\n        require(isFinished());\n        _;\n    }\n\n    modifier onlyScheduledTiers() {\n        require(tiers.length > 0);\n        _;\n    }\n\n    modifier onlyNotFinalized() {\n        require(!isFinalized());\n        _;\n    }\n\n    modifier onlySubsequentBlock(uint256 startBlock) {\n        if (tiers.length > 0) {\n            require(startBlock > tiers[tiers.length - 1].startBlock);\n        }\n        _;\n    }\n\n    modifier onlyNotZero(uint256 value) {\n        require(value != 0);\n        _;\n    }\n\n    modifier onlyValid(address addr) {\n        require(addr != address(0));\n        _;\n    }\n\n    function IcoCrowdsale(\n        address _wallet,\n        IcoToken _token,\n        uint256 _minValue\n    )\n        public\n        onlyValid(_wallet)\n        onlyValid(_token)\n    {\n        wallet = _wallet;\n        token = _token;\n        minValue = _minValue;\n    }\n\n    /**\n     * @dev Contribution is accepted\n     * @param contributor address The recipient of the tokens\n     * @param value uint256 The amount of contributed ETH\n     * @param amount uint256 The amount of tokens\n     */\n    event ContributionAccepted(address indexed contributor, uint256 value, uint256 amount);\n\n    /**\n     * @dev Off-chain contribution registered\n     * @param id bytes32 A unique contribution id\n     * @param contributor address The recipient of the tokens\n     * @param amount uint256 The amount of tokens\n     */\n    event ContributionRegistered(bytes32 indexed id, address indexed contributor, uint256 amount);\n\n    /**\n     * @dev Tier scheduled with given start block and price\n     * @param startBlock uint256 The first block of tier activation (inclusive)\n     * @param price uint256 The price active during tier\n     */\n    event TierScheduled(uint256 startBlock, uint256 price);\n\n    /**\n     * @dev Crowdsale end block scheduled\n     * @param availableAmount uint256 The amount of tokens available in crowdsale\n     * @param endBlock uint256 The last block of crowdsale (inclusive)\n     */\n    event Finalized(uint256 endBlock, uint256 availableAmount);\n\n    /**\n     * @dev Unsold tokens burned\n     */\n    event RemainsBurned(uint256 burnedAmount);\n\n    /**\n     * @dev Accept ETH transfers as contributions\n     */\n    function () public payable {\n        acceptContribution(msg.sender, msg.value);\n    }\n\n    /**\n     * @dev Contribute ETH in exchange for tokens\n     * @param contributor address The address that receives tokens\n     * @return uint256 Amount of received ONL tokens\n     */\n    function contribute(address contributor) public payable returns (uint256) {\n        return acceptContribution(contributor, msg.value);\n    }\n\n    /**\n     * @dev Register contribution with given id\n     * @param id bytes32 A unique contribution id\n     * @param contributor address The recipient of the tokens\n     * @param amount uint256 The amount of tokens\n     */\n    function registerContribution(bytes32 id, address contributor, uint256 amount)\n        public\n        onlyOwner\n        onlyActive\n        onlyValid(contributor)\n        onlyNotZero(amount)\n        onlyUniqueContribution(id)\n    {\n        isContributionRegistered[id] = true;\n\n        token.transfer(contributor, amount);\n\n        ContributionRegistered(id, contributor, amount);\n    }\n\n    /**\n     * @dev Schedule price tier\n     * @param _startBlock uint256 Block when the tier activates, inclusive\n     * @param _price uint256 The price of the tier\n     */\n    function scheduleTier(uint256 _startBlock, uint256 _price)\n        public\n        onlyOwner\n        onlyNotFinalized\n        onlySubsequentBlock(_startBlock)\n        onlyNotZero(_startBlock)\n        onlyNotZero(_price)\n    {\n        tiers.push(\n            Tier({\n                startBlock: _startBlock,\n                price: _price\n            })\n        );\n\n        TierScheduled(_startBlock, _price);\n    }\n\n    /**\n     * @dev Schedule crowdsale end\n     * @param _endBlock uint256 The last block end of crowdsale (inclusive)\n     * @param _availableAmount uint256 Amount of tokens available in crowdsale\n     */\n    function finalize(uint256 _endBlock, uint256 _availableAmount)\n        public\n        onlyOwner\n        onlyNotFinalized\n        onlyScheduledTiers\n        onlySubsequentBlock(_endBlock)\n        onlyNotZero(_availableAmount)\n    {\n        endBlock = _endBlock;\n\n        token.mint(this, _availableAmount);\n\n        Finalized(_endBlock, _availableAmount);\n    }\n\n    /**\n     * @dev Burns all tokens which have not been sold\n     */\n    function burnRemains()\n        public\n        onlyOwner\n        onlyFinished\n    {\n        uint256 amount = availableAmount();\n\n        token.burn(amount);\n\n        RemainsBurned(amount);\n    }\n\n    /**\n     * @dev Calculate amount of ONL tokens received for given ETH value\n     * @param value uint256 Contribution value in wei\n     * @return uint256 Amount of received ONL tokens if contract active, otherwise 0\n     */\n    function calculateContribution(uint256 value) public view returns (uint256) {\n        uint256 price = currentPrice();\n        if (price > 0) {\n            return value.mul(10 ** token.decimals()).div(price);\n        }\n\n        return 0;\n    }\n\n    /**\n     * @dev Find closest tier id to given block\n     * @return uint256 Tier containing the block or zero if before start or last if after finished\n     */\n    function getTierId(uint256 blockNumber) public view returns (uint256) {\n        for (uint256 i = tiers.length - 1; i >= 0; i--) {\n            if (blockNumber >= tiers[i].startBlock) {\n                return i;\n            }\n        }\n\n        return 0;\n    }\n\n    /**\n     * @dev Get price of the current tier\n     * @return uint256 Current price if tiers defined, otherwise 0\n     */\n    function currentPrice() public view returns (uint256) {\n        if (tiers.length > 0) {\n            uint256 id = getTierId(block.number);\n            return tiers[id].price;\n        }\n\n        return 0;\n    }\n\n    /**\n     * @dev Get current tier id\n     * @return uint256 Tier containing the block or zero if before start or last if after finished\n     */\n    function currentTierId() public view returns (uint256) {\n        return getTierId(block.number);\n    }\n\n    /**\n     * @dev Get available amount of tokens\n     * @return uint256 Amount of unsold tokens\n     */\n    function availableAmount() public view returns (uint256) {\n        return token.balanceOf(this);\n    }\n\n    /**\n     * @dev Get specification of all tiers\n     */\n    function listTiers()\n        public\n        view\n        returns (uint256[] startBlocks, uint256[] endBlocks, uint256[] prices)\n    {\n        startBlocks = new uint256[](tiers.length);\n        endBlocks = new uint256[](tiers.length);\n        prices = new uint256[](tiers.length);\n\n        for (uint256 i = 0; i < tiers.length; i++) {\n            startBlocks[i] = tiers[i].startBlock;\n            prices[i] = tiers[i].price;\n\n            if (i + 1 < tiers.length) {\n                endBlocks[i] = tiers[i + 1].startBlock - 1;\n            } else {\n                endBlocks[i] = endBlock;\n            }\n        }\n    }\n\n    /**\n     * @dev Check whether crowdsale is currently active\n     * @return boolean True if current block number is within tier ranges, otherwise False\n     */\n    function isActive() public view returns (bool) {\n        return\n            tiers.length > 0 &&\n            block.number >= tiers[0].startBlock &&\n            block.number <= endBlock;\n    }\n\n    /**\n     * @dev Check whether sale end is scheduled\n     * @return boolean True if end block is defined, otherwise False\n     */\n    function isFinalized() public view returns (bool) {\n        return endBlock > 0;\n    }\n\n    /**\n     * @dev Check whether crowdsale has finished\n     * @return boolean True if end block passed, otherwise False\n     */\n    function isFinished() public view returns (bool) {\n        return endBlock > 0 && block.number > endBlock;\n    }\n\n    function acceptContribution(address contributor, uint256 value)\n        private\n        onlyActive\n        onlyValid(contributor)\n        onlySufficientValue(value)\n        returns (uint256)\n    {\n        uint256 amount = calculateContribution(value);\n        token.transfer(contributor, amount);\n\n        wallet.transfer(value);\n\n        ContributionAccepted(contributor, value, amount);\n\n        return amount;\n    }\n}\n",
  "sourcePath": "/home/js/Projects/pc/onlive/onlive-contracts/contracts/IcoCrowdsale.sol",
  "compiler": {
    "name": "solc",
    "version": "0.4.18+commit.9cf6e910.Emscripten.clang"
  },
  "schemaVersion": "1.0.1",
  "updatedAt": "2018-03-10T14:51:28.889Z"
}