{
  "contractName": "MintableToken",
  "abi": [
    {
      "constant": true,
      "inputs": [],
      "name": "mintingFinished",
      "outputs": [
        {
          "name": "",
          "type": "bool"
        }
      ],
      "payable": false,
      "stateMutability": "view",
      "type": "function"
    },
    {
      "constant": true,
      "inputs": [],
      "name": "totalSupply",
      "outputs": [
        {
          "name": "",
          "type": "uint256"
        }
      ],
      "payable": false,
      "stateMutability": "view",
      "type": "function"
    },
    {
      "constant": false,
      "inputs": [
        {
          "name": "to",
          "type": "address"
        },
        {
          "name": "amount",
          "type": "uint256"
        }
      ],
      "name": "mint",
      "outputs": [],
      "payable": false,
      "stateMutability": "nonpayable",
      "type": "function"
    },
    {
      "constant": true,
      "inputs": [],
      "name": "MINT_ADDRESS",
      "outputs": [
        {
          "name": "",
          "type": "address"
        }
      ],
      "payable": false,
      "stateMutability": "view",
      "type": "function"
    },
    {
      "constant": false,
      "inputs": [
        {
          "name": "addr",
          "type": "address"
        }
      ],
      "name": "approveMintingManager",
      "outputs": [],
      "payable": false,
      "stateMutability": "nonpayable",
      "type": "function"
    },
    {
      "constant": false,
      "inputs": [
        {
          "name": "addr",
          "type": "address"
        }
      ],
      "name": "revokeMintingManager",
      "outputs": [],
      "payable": false,
      "stateMutability": "nonpayable",
      "type": "function"
    },
    {
      "constant": true,
      "inputs": [
        {
          "name": "_owner",
          "type": "address"
        }
      ],
      "name": "balanceOf",
      "outputs": [
        {
          "name": "balance",
          "type": "uint256"
        }
      ],
      "payable": false,
      "stateMutability": "view",
      "type": "function"
    },
    {
      "constant": false,
      "inputs": [],
      "name": "finishMinting",
      "outputs": [],
      "payable": false,
      "stateMutability": "nonpayable",
      "type": "function"
    },
    {
      "constant": true,
      "inputs": [],
      "name": "owner",
      "outputs": [
        {
          "name": "",
          "type": "address"
        }
      ],
      "payable": false,
      "stateMutability": "view",
      "type": "function"
    },
    {
      "constant": false,
      "inputs": [
        {
          "name": "_to",
          "type": "address"
        },
        {
          "name": "_value",
          "type": "uint256"
        }
      ],
      "name": "transfer",
      "outputs": [
        {
          "name": "",
          "type": "bool"
        }
      ],
      "payable": false,
      "stateMutability": "nonpayable",
      "type": "function"
    },
    {
      "constant": true,
      "inputs": [
        {
          "name": "",
          "type": "address"
        }
      ],
      "name": "isMintingManager",
      "outputs": [
        {
          "name": "",
          "type": "bool"
        }
      ],
      "payable": false,
      "stateMutability": "view",
      "type": "function"
    },
    {
      "constant": false,
      "inputs": [
        {
          "name": "newOwner",
          "type": "address"
        }
      ],
      "name": "transferOwnership",
      "outputs": [],
      "payable": false,
      "stateMutability": "nonpayable",
      "type": "function"
    },
    {
      "anonymous": false,
      "inputs": [
        {
          "indexed": true,
          "name": "to",
          "type": "address"
        },
        {
          "indexed": false,
          "name": "amount",
          "type": "uint256"
        }
      ],
      "name": "Minted",
      "type": "event"
    },
    {
      "anonymous": false,
      "inputs": [
        {
          "indexed": false,
          "name": "addr",
          "type": "address"
        }
      ],
      "name": "MintingManagerApproved",
      "type": "event"
    },
    {
      "anonymous": false,
      "inputs": [
        {
          "indexed": false,
          "name": "addr",
          "type": "address"
        }
      ],
      "name": "MintingManagerRevoked",
      "type": "event"
    },
    {
      "anonymous": false,
      "inputs": [],
      "name": "MintingFinished",
      "type": "event"
    },
    {
      "anonymous": false,
      "inputs": [
        {
          "indexed": true,
          "name": "previousOwner",
          "type": "address"
        },
        {
          "indexed": true,
          "name": "newOwner",
          "type": "address"
        }
      ],
      "name": "OwnershipTransferred",
      "type": "event"
    },
    {
      "anonymous": false,
      "inputs": [
        {
          "indexed": true,
          "name": "from",
          "type": "address"
        },
        {
          "indexed": true,
          "name": "to",
          "type": "address"
        },
        {
          "indexed": false,
          "name": "value",
          "type": "uint256"
        }
      ],
      "name": "Transfer",
      "type": "event"
    }
  ],
  "bytecode": "0x606060405233600260006101000a81548173ffffffffffffffffffffffffffffffffffffffff021916908373ffffffffffffffffffffffffffffffffffffffff160217905550610da1806100546000396000f3006060604052600436106100ba576000357c0100000000000000000000000000000000000000000000000000000000900463ffffffff16806305d2035b146100bf57806318160ddd146100ec57806340c10f1914610115578063466c35fc1461015757806352d714e8146101ac57806366a11615146101e557806370a082311461021e5780637d64bcb41461026b5780638da5cb5b14610280578063a9059cbb146102d5578063eaa382c21461032f578063f2fde38b14610380575b600080fd5b34156100ca57600080fd5b6100d26103b9565b604051808215151515815260200191505060405180910390f35b34156100f757600080fd5b6100ff6103cc565b6040518082815260200191505060405180910390f35b341561012057600080fd5b610155600480803573ffffffffffffffffffffffffffffffffffffffff169060200190919080359060200190919050506103d2565b005b341561016257600080fd5b61016a6105b0565b604051808273ffffffffffffffffffffffffffffffffffffffff1673ffffffffffffffffffffffffffffffffffffffff16815260200191505060405180910390f35b34156101b757600080fd5b6101e3600480803573ffffffffffffffffffffffffffffffffffffffff169060200190919050506105b5565b005b34156101f057600080fd5b61021c600480803573ffffffffffffffffffffffffffffffffffffffff169060200190919050506106eb565b005b341561022957600080fd5b610255600480803573ffffffffffffffffffffffffffffffffffffffff16906020019091905050610872565b6040518082815260200191505060405180910390f35b341561027657600080fd5b61027e6108bb565b005b341561028b57600080fd5b61029361097c565b604051808273ffffffffffffffffffffffffffffffffffffffff1673ffffffffffffffffffffffffffffffffffffffff16815260200191505060405180910390f35b34156102e057600080fd5b610315600480803573ffffffffffffffffffffffffffffffffffffffff169060200190919080359060200190919050506109a2565b604051808215151515815260200191505060405180910390f35b341561033a57600080fd5b610366600480803573ffffffffffffffffffffffffffffffffffffffff16906020019091905050610bc6565b604051808215151515815260200191505060405180910390f35b341561038b57600080fd5b6103b7600480803573ffffffffffffffffffffffffffffffffffffffff16906020019091905050610be6565b005b600260149054906101000a900460ff1681565b60005481565b33600360008273ffffffffffffffffffffffffffffffffffffffff1673ffffffffffffffffffffffffffffffffffffffff16815260200190815260200160002060009054906101000a900460ff16151561042b57600080fd5b600260149054906101000a900460ff1615151561044757600080fd5b61045c82600054610d3e90919063ffffffff16565b6000819055506104b482600160008673ffffffffffffffffffffffffffffffffffffffff1673ffffffffffffffffffffffffffffffffffffffff16815260200190815260200160002054610d3e90919063ffffffff16565b600160008573ffffffffffffffffffffffffffffffffffffffff1673ffffffffffffffffffffffffffffffffffffffff168152602001908152602001600020819055508273ffffffffffffffffffffffffffffffffffffffff167f30385c845b448a36257a6a1716e6ad2e1bc2cbe333cde1e69fe849ad6511adfe836040518082815260200191505060405180910390a28273ffffffffffffffffffffffffffffffffffffffff16600073ffffffffffffffffffffffffffffffffffffffff167fddf252ad1be2c89b69c2b068fc378daa952ba7f163c4a11628f55a4df523b3ef846040518082815260200191505060405180910390a3505050565b600081565b600260009054906101000a900473ffffffffffffffffffffffffffffffffffffffff1673ffffffffffffffffffffffffffffffffffffffff163373ffffffffffffffffffffffffffffffffffffffff1614151561061157600080fd5b600260149054906101000a900460ff1615151561062d57600080fd5b6001600360008373ffffffffffffffffffffffffffffffffffffffff1673ffffffffffffffffffffffffffffffffffffffff16815260200190815260200160002060006101000a81548160ff0219169083151502179055507fe51e88bd9ebff6e735eefe034d049d93b496e774a0ff56d16a13fc36cf68963681604051808273ffffffffffffffffffffffffffffffffffffffff1673ffffffffffffffffffffffffffffffffffffffff16815260200191505060405180910390a150565b600260009054906101000a900473ffffffffffffffffffffffffffffffffffffffff1673ffffffffffffffffffffffffffffffffffffffff163373ffffffffffffffffffffffffffffffffffffffff1614151561074757600080fd5b80600360008273ffffffffffffffffffffffffffffffffffffffff1673ffffffffffffffffffffffffffffffffffffffff16815260200190815260200160002060009054906101000a900460ff1615156107a057600080fd5b600260149054906101000a900460ff161515156107bc57600080fd5b600360008373ffffffffffffffffffffffffffffffffffffffff1673ffffffffffffffffffffffffffffffffffffffff16815260200190815260200160002060006101000a81549060ff02191690557fc21afa55c927bd0de399897b42b5bc046faddff7ba7f059f8cf8ed07cdaa43c682604051808273ffffffffffffffffffffffffffffffffffffffff1673ffffffffffffffffffffffffffffffffffffffff16815260200191505060405180910390a15050565b6000600160008373ffffffffffffffffffffffffffffffffffffffff1673ffffffffffffffffffffffffffffffffffffffff168152602001908152602001600020549050919050565b600260009054906101000a900473ffffffffffffffffffffffffffffffffffffffff1673ffffffffffffffffffffffffffffffffffffffff163373ffffffffffffffffffffffffffffffffffffffff1614151561091757600080fd5b600260149054906101000a900460ff1615151561093357600080fd5b6001600260146101000a81548160ff0219169083151502179055507fb828d9b5c78095deeeeff2eca2e5d4fe046ce3feb4c99702624a3fd384ad2dbc60405160405180910390a1565b600260009054906101000a900473ffffffffffffffffffffffffffffffffffffffff1681565b60008073ffffffffffffffffffffffffffffffffffffffff168373ffffffffffffffffffffffffffffffffffffffff16141515156109df57600080fd5b600160003373ffffffffffffffffffffffffffffffffffffffff1673ffffffffffffffffffffffffffffffffffffffff168152602001908152602001600020548211151515610a2d57600080fd5b610a7f82600160003373ffffffffffffffffffffffffffffffffffffffff1673ffffffffffffffffffffffffffffffffffffffff16815260200190815260200160002054610d5c90919063ffffffff16565b600160003373ffffffffffffffffffffffffffffffffffffffff1673ffffffffffffffffffffffffffffffffffffffff16815260200190815260200160002081905550610b1482600160008673ffffffffffffffffffffffffffffffffffffffff1673ffffffffffffffffffffffffffffffffffffffff16815260200190815260200160002054610d3e90919063ffffffff16565b600160008573ffffffffffffffffffffffffffffffffffffffff1673ffffffffffffffffffffffffffffffffffffffff168152602001908152602001600020819055508273ffffffffffffffffffffffffffffffffffffffff163373ffffffffffffffffffffffffffffffffffffffff167fddf252ad1be2c89b69c2b068fc378daa952ba7f163c4a11628f55a4df523b3ef846040518082815260200191505060405180910390a36001905092915050565b60036020528060005260406000206000915054906101000a900460ff1681565b600260009054906101000a900473ffffffffffffffffffffffffffffffffffffffff1673ffffffffffffffffffffffffffffffffffffffff163373ffffffffffffffffffffffffffffffffffffffff16141515610c4257600080fd5b600073ffffffffffffffffffffffffffffffffffffffff168173ffffffffffffffffffffffffffffffffffffffff1614151515610c7e57600080fd5b8073ffffffffffffffffffffffffffffffffffffffff16600260009054906101000a900473ffffffffffffffffffffffffffffffffffffffff1673ffffffffffffffffffffffffffffffffffffffff167f8be0079c531659141344cd1fd0a4f28419497f9722a3daafe3b4186f6b6457e060405160405180910390a380600260006101000a81548173ffffffffffffffffffffffffffffffffffffffff021916908373ffffffffffffffffffffffffffffffffffffffff16021790555050565b6000808284019050838110151515610d5257fe5b8091505092915050565b6000828211151515610d6a57fe5b8183039050929150505600a165627a7a72305820634f3e7a4f3cdf937091a30f90d0dd1c0c1b1e7a4f4e6660c57d7c4809526c7e0029",
  "source": "pragma solidity 0.4.18;\n\nimport { SafeMath } from \"zeppelin-solidity/contracts/math/SafeMath.sol\";\nimport { BasicToken } from \"zeppelin-solidity/contracts/token/BasicToken.sol\";\nimport { Ownable } from \"zeppelin-solidity/contracts/ownership/Ownable.sol\";\n\n\n/**\n * @title A token that can increase its supply in initial period\n * @author Jakub Stefanski (https://github.com/jstefanski)\n */\ncontract MintableToken is BasicToken, Ownable {\n\n    using SafeMath for uint256;\n\n    /**\n     * @dev Address from which minted tokens are Transferred.\n     * @dev This is useful for blockchain explorers operating on Transfer event.\n     */\n    address public constant MINT_ADDRESS = address(0x0);\n\n    /**\n     * @dev Indicates whether creating tokens has finished\n     */\n    bool public mintingFinished;\n\n    /**\n     * @dev Addresses allowed to create tokens\n     */\n    mapping (address => bool) public isMintingManager;\n\n    /**\n     * @dev Tokens minted to specified address\n     * @param to address The receiver of the tokens\n     * @param amount uint256 The amount of tokens\n     */\n    event Minted(address indexed to, uint256 amount);\n\n    /**\n     * @dev Approves specified address as a Minting Manager\n     * @param addr address The approved address\n     */\n    event MintingManagerApproved(address addr);\n\n    /**\n     * @dev Revokes specified address as a Minting Manager\n     * @param addr address The revoked address\n     */\n    event MintingManagerRevoked(address addr);\n\n    /**\n     * @dev Creation of tokens finished\n     */\n    event MintingFinished();\n\n    modifier onlyMintingManager(address addr) {\n        require(isMintingManager[addr]);\n        _;\n    }\n\n    modifier onlyMintingNotFinished {\n        require(!mintingFinished);\n        _;\n    }\n\n    /**\n     * @dev Approve specified address to mint tokens\n     * @param addr address The approved Minting Manager address\n     */\n    function approveMintingManager(address addr)\n        public\n        onlyOwner\n        onlyMintingNotFinished\n    {\n        isMintingManager[addr] = true;\n\n        MintingManagerApproved(addr);\n    }\n\n    /**\n     * @dev Forbid specified address to mint tokens\n     * @param addr address The denied Minting Manager address\n     */\n    function revokeMintingManager(address addr)\n        public\n        onlyOwner\n        onlyMintingManager(addr)\n        onlyMintingNotFinished\n    {\n        delete isMintingManager[addr];\n\n        MintingManagerRevoked(addr);\n    }\n\n    /**\n     * @dev Create new tokens and transfer them to specified address\n     * @param to address The address to transfer to\n     * @param amount uint256 The amount to be minted\n     */\n    function mint(address to, uint256 amount)\n        public\n        onlyMintingManager(msg.sender)\n        onlyMintingNotFinished\n    {\n        totalSupply = totalSupply.add(amount);\n        balances[to] = balances[to].add(amount);\n\n        Minted(to, amount);\n        Transfer(MINT_ADDRESS, to, amount);\n    }\n\n    /**\n     * @dev Prevent further creation of tokens\n     */\n    function finishMinting()\n        public\n        onlyOwner\n        onlyMintingNotFinished\n    {\n        mintingFinished = true;\n\n        MintingFinished();\n    }\n}\n",
  "sourcePath": "/home/js/Projects/pc/onlive/onlive-contracts/contracts/token/MintableToken.sol",
  "compiler": {
    "name": "solc",
    "version": "0.4.18+commit.9cf6e910.Emscripten.clang"
  },
  "schemaVersion": "1.0.1",
  "updatedAt": "2018-01-17T11:03:41.954Z"
}