{
  "contractName": "PreIcoCrowdsale",
  "abi": [
    {
      "constant": true,
      "inputs": [],
      "name": "endBlock",
      "outputs": [
        {
          "name": "",
          "type": "uint256"
        }
      ],
      "payable": false,
      "stateMutability": "view",
      "type": "function"
    },
    {
      "constant": false,
      "inputs": [
        {
          "name": "_startBlock",
          "type": "uint256"
        },
        {
          "name": "_endBlock",
          "type": "uint256"
        }
      ],
      "name": "schedule",
      "outputs": [],
      "payable": false,
      "stateMutability": "nonpayable",
      "type": "function"
    },
    {
      "constant": true,
      "inputs": [],
      "name": "isActive",
      "outputs": [
        {
          "name": "",
          "type": "bool"
        }
      ],
      "payable": false,
      "stateMutability": "view",
      "type": "function"
    },
    {
      "constant": true,
      "inputs": [
        {
          "name": "",
          "type": "bytes32"
        }
      ],
      "name": "isContributionRegistered",
      "outputs": [
        {
          "name": "",
          "type": "bool"
        }
      ],
      "payable": false,
      "stateMutability": "view",
      "type": "function"
    },
    {
      "constant": true,
      "inputs": [],
      "name": "startBlock",
      "outputs": [
        {
          "name": "",
          "type": "uint256"
        }
      ],
      "payable": false,
      "stateMutability": "view",
      "type": "function"
    },
    {
      "constant": true,
      "inputs": [],
      "name": "wallet",
      "outputs": [
        {
          "name": "",
          "type": "address"
        }
      ],
      "payable": false,
      "stateMutability": "view",
      "type": "function"
    },
    {
      "constant": false,
      "inputs": [
        {
          "name": "contributor",
          "type": "address"
        }
      ],
      "name": "contribute",
      "outputs": [
        {
          "name": "",
          "type": "uint256"
        }
      ],
      "payable": true,
      "stateMutability": "payable",
      "type": "function"
    },
    {
      "constant": true,
      "inputs": [],
      "name": "isScheduled",
      "outputs": [
        {
          "name": "",
          "type": "bool"
        }
      ],
      "payable": false,
      "stateMutability": "view",
      "type": "function"
    },
    {
      "constant": true,
      "inputs": [],
      "name": "owner",
      "outputs": [
        {
          "name": "",
          "type": "address"
        }
      ],
      "payable": false,
      "stateMutability": "view",
      "type": "function"
    },
    {
      "constant": true,
      "inputs": [],
      "name": "availableAmount",
      "outputs": [
        {
          "name": "",
          "type": "uint256"
        }
      ],
      "payable": false,
      "stateMutability": "view",
      "type": "function"
    },
    {
      "constant": true,
      "inputs": [],
      "name": "minValue",
      "outputs": [
        {
          "name": "",
          "type": "uint256"
        }
      ],
      "payable": false,
      "stateMutability": "view",
      "type": "function"
    },
    {
      "constant": true,
      "inputs": [],
      "name": "price",
      "outputs": [
        {
          "name": "",
          "type": "uint256"
        }
      ],
      "payable": false,
      "stateMutability": "view",
      "type": "function"
    },
    {
      "constant": false,
      "inputs": [
        {
          "name": "newOwner",
          "type": "address"
        }
      ],
      "name": "transferOwnership",
      "outputs": [],
      "payable": false,
      "stateMutability": "nonpayable",
      "type": "function"
    },
    {
      "constant": true,
      "inputs": [
        {
          "name": "value",
          "type": "uint256"
        }
      ],
      "name": "calculateContribution",
      "outputs": [
        {
          "name": "",
          "type": "uint256"
        }
      ],
      "payable": false,
      "stateMutability": "view",
      "type": "function"
    },
    {
      "constant": false,
      "inputs": [
        {
          "name": "id",
          "type": "bytes32"
        },
        {
          "name": "contributor",
          "type": "address"
        },
        {
          "name": "amount",
          "type": "uint256"
        }
      ],
      "name": "registerContribution",
      "outputs": [],
      "payable": false,
      "stateMutability": "nonpayable",
      "type": "function"
    },
    {
      "constant": true,
      "inputs": [],
      "name": "token",
      "outputs": [
        {
          "name": "",
          "type": "address"
        }
      ],
      "payable": false,
      "stateMutability": "view",
      "type": "function"
    },
    {
      "inputs": [
        {
          "name": "_wallet",
          "type": "address"
        },
        {
          "name": "_token",
          "type": "address"
        },
        {
          "name": "_availableAmount",
          "type": "uint256"
        },
        {
          "name": "_price",
          "type": "uint256"
        },
        {
          "name": "_minValue",
          "type": "uint256"
        }
      ],
      "payable": false,
      "stateMutability": "nonpayable",
      "type": "constructor"
    },
    {
      "payable": true,
      "stateMutability": "payable",
      "type": "fallback"
    },
    {
      "anonymous": false,
      "inputs": [
        {
          "indexed": true,
          "name": "contributor",
          "type": "address"
        },
        {
          "indexed": false,
          "name": "value",
          "type": "uint256"
        },
        {
          "indexed": false,
          "name": "amount",
          "type": "uint256"
        }
      ],
      "name": "ContributionAccepted",
      "type": "event"
    },
    {
      "anonymous": false,
      "inputs": [
        {
          "indexed": true,
          "name": "id",
          "type": "bytes32"
        },
        {
          "indexed": true,
          "name": "contributor",
          "type": "address"
        },
        {
          "indexed": false,
          "name": "amount",
          "type": "uint256"
        }
      ],
      "name": "ContributionRegistered",
      "type": "event"
    },
    {
      "anonymous": false,
      "inputs": [
        {
          "indexed": false,
          "name": "startBlock",
          "type": "uint256"
        },
        {
          "indexed": false,
          "name": "endBlock",
          "type": "uint256"
        }
      ],
      "name": "Scheduled",
      "type": "event"
    },
    {
      "anonymous": false,
      "inputs": [
        {
          "indexed": true,
          "name": "previousOwner",
          "type": "address"
        },
        {
          "indexed": true,
          "name": "newOwner",
          "type": "address"
        }
      ],
      "name": "OwnershipTransferred",
      "type": "event"
    }
  ],
  "bytecode": "0x6060604052341561000f57600080fd5b60405160a080610ee683398101604052808051906020019091908051906020019091908051906020019091908051906020019091908051906020019091905050336000806101000a81548173ffffffffffffffffffffffffffffffffffffffff021916908373ffffffffffffffffffffffffffffffffffffffff16021790555084600073ffffffffffffffffffffffffffffffffffffffff168173ffffffffffffffffffffffffffffffffffffffff16141515156100cc57600080fd5b84600073ffffffffffffffffffffffffffffffffffffffff168173ffffffffffffffffffffffffffffffffffffffff161415151561010957600080fd5b846000811415151561011a57600080fd5b846000811415151561012b57600080fd5b88600360006101000a81548173ffffffffffffffffffffffffffffffffffffffff021916908373ffffffffffffffffffffffffffffffffffffffff16021790555087600460006101000a81548173ffffffffffffffffffffffffffffffffffffffff021916908373ffffffffffffffffffffffffffffffffffffffff160217905550866005819055508560068190555084600781905550505050505050505050610d0c806101da6000396000f3006060604052600436106100e6576000357c0100000000000000000000000000000000000000000000000000000000900463ffffffff168063083c6323146100f35780631d9b1d6f1461011c57806322f3e2d4146101485780633c2efb221461017557806348cd4cb1146101b4578063521eb273146101dd57806373e888fd146102325780637ee80d17146102745780638da5cb5b146102a157806391f7cfb9146102f6578063963e63c71461031f578063a035b1fe14610348578063f2fde38b14610371578063f658b1d5146103aa578063f8d578f0146103e1578063fc0c546a14610430575b6100f03334610485565b50005b34156100fe57600080fd5b6101066105c3565b6040518082815260200191505060405180910390f35b341561012757600080fd5b61014660048080359060200190919080359060200190919050506105c9565b005b341561015357600080fd5b61015b6106bb565b604051808215151515815260200191505060405180910390f35b341561018057600080fd5b61019a6004808035600019169060200190919050506106d6565b604051808215151515815260200191505060405180910390f35b34156101bf57600080fd5b6101c76106f6565b6040518082815260200191505060405180910390f35b34156101e857600080fd5b6101f06106fc565b604051808273ffffffffffffffffffffffffffffffffffffffff1673ffffffffffffffffffffffffffffffffffffffff16815260200191505060405180910390f35b61025e600480803573ffffffffffffffffffffffffffffffffffffffff16906020019091905050610722565b6040518082815260200191505060405180910390f35b341561027f57600080fd5b610287610735565b604051808215151515815260200191505060405180910390f35b34156102ac57600080fd5b6102b461074f565b604051808273ffffffffffffffffffffffffffffffffffffffff1673ffffffffffffffffffffffffffffffffffffffff16815260200191505060405180910390f35b341561030157600080fd5b610309610774565b6040518082815260200191505060405180910390f35b341561032a57600080fd5b61033261077a565b6040518082815260200191505060405180910390f35b341561035357600080fd5b61035b610780565b6040518082815260200191505060405180910390f35b341561037c57600080fd5b6103a8600480803573ffffffffffffffffffffffffffffffffffffffff16906020019091905050610786565b005b34156103b557600080fd5b6103cb60048080359060200190919050506108db565b6040518082815260200191505060405180910390f35b34156103ec57600080fd5b61042e60048080356000191690602001909190803573ffffffffffffffffffffffffffffffffffffffff169060200190919080359060200190919050506109b6565b005b341561043b57600080fd5b610443610b41565b604051808273ffffffffffffffffffffffffffffffffffffffff1673ffffffffffffffffffffffffffffffffffffffff16815260200191505060405180910390f35b6000806104906106bb565b151561049b57600080fd5b83600073ffffffffffffffffffffffffffffffffffffffff168173ffffffffffffffffffffffffffffffffffffffff16141515156104d857600080fd5b8360075481101515156104ea57600080fd5b6104f3856108db565b92506104ff8684610b67565b600360009054906101000a900473ffffffffffffffffffffffffffffffffffffffff1673ffffffffffffffffffffffffffffffffffffffff166108fc869081150290604051600060405180830381858888f19350505050151561056157600080fd5b8573ffffffffffffffffffffffffffffffffffffffff167fc82bd2657a86085d10f487c20f5c22d24b8031e8d43be961bfec4ee100df27ba8685604051808381526020018281526020019250505060405180910390a282935050505092915050565b60025481565b6000809054906101000a900473ffffffffffffffffffffffffffffffffffffffff1673ffffffffffffffffffffffffffffffffffffffff163373ffffffffffffffffffffffffffffffffffffffff1614151561062457600080fd5b61062c610735565b15151561063857600080fd5b816000811415151561064957600080fd5b816000811415151561065a57600080fd5b828410151561066857600080fd5b83600181905550826002819055507feb869b8b503112df6f227389651736ee39966235838a652775ed23fddd087f8f8484604051808381526020018281526020019250505060405180910390a150505050565b600060015443101580156106d157506002544311155b905090565b60086020528060005260406000206000915054906101000a900460ff1681565b60015481565b600360009054906101000a900473ffffffffffffffffffffffffffffffffffffffff1681565b600061072e8234610485565b9050919050565b60008060015411801561074a57506000600254115b905090565b6000809054906101000a900473ffffffffffffffffffffffffffffffffffffffff1681565b60055481565b60075481565b60065481565b6000809054906101000a900473ffffffffffffffffffffffffffffffffffffffff1673ffffffffffffffffffffffffffffffffffffffff163373ffffffffffffffffffffffffffffffffffffffff161415156107e157600080fd5b600073ffffffffffffffffffffffffffffffffffffffff168173ffffffffffffffffffffffffffffffffffffffff161415151561081d57600080fd5b8073ffffffffffffffffffffffffffffffffffffffff166000809054906101000a900473ffffffffffffffffffffffffffffffffffffffff1673ffffffffffffffffffffffffffffffffffffffff167f8be0079c531659141344cd1fd0a4f28419497f9722a3daafe3b4186f6b6457e060405160405180910390a3806000806101000a81548173ffffffffffffffffffffffffffffffffffffffff021916908373ffffffffffffffffffffffffffffffffffffffff16021790555050565b60006109af6006546109a1600460009054906101000a900473ffffffffffffffffffffffffffffffffffffffff1673ffffffffffffffffffffffffffffffffffffffff1663313ce5676000604051602001526040518163ffffffff167c0100000000000000000000000000000000000000000000000000000000028152600401602060405180830381600087803b151561097457600080fd5b6102c65a03f1151561098557600080fd5b50505060405180519050600a0a85610c7190919063ffffffff16565b610cac90919063ffffffff16565b9050919050565b6000809054906101000a900473ffffffffffffffffffffffffffffffffffffffff1673ffffffffffffffffffffffffffffffffffffffff163373ffffffffffffffffffffffffffffffffffffffff16141515610a1157600080fd5b610a196106bb565b1515610a2457600080fd5b81600073ffffffffffffffffffffffffffffffffffffffff168173ffffffffffffffffffffffffffffffffffffffff1614151515610a6157600080fd5b8160008114151515610a7257600080fd5b8460086000826000191660001916815260200190815260200160002060009054906101000a900460ff16151515610aa857600080fd5b600160086000886000191660001916815260200190815260200160002060006101000a81548160ff021916908315150217905550610ae68585610b67565b8473ffffffffffffffffffffffffffffffffffffffff1686600019167f1d978f9e1df3910a137d9fde0320c164e817c01d8142a2127d9a381e1ac67206866040518082815260200191505060405180910390a3505050505050565b600460009054906101000a900473ffffffffffffffffffffffffffffffffffffffff1681565b808060055410151515610b7957600080fd5b610b8e82600554610cc790919063ffffffff16565b600581905550600460009054906101000a900473ffffffffffffffffffffffffffffffffffffffff1673ffffffffffffffffffffffffffffffffffffffff166340c10f1984846040518363ffffffff167c0100000000000000000000000000000000000000000000000000000000028152600401808373ffffffffffffffffffffffffffffffffffffffff1673ffffffffffffffffffffffffffffffffffffffff16815260200182815260200192505050600060405180830381600087803b1515610c5857600080fd5b6102c65a03f11515610c6957600080fd5b505050505050565b6000806000841415610c865760009150610ca5565b8284029050828482811515610c9757fe5b04141515610ca157fe5b8091505b5092915050565b6000808284811515610cba57fe5b0490508091505092915050565b6000828211151515610cd557fe5b8183039050929150505600a165627a7a7230582024368f93bde28c972b75b4d79cd171c65366b9a8064afe523a8909b1e27388400029",
  "source": "pragma solidity 0.4.18;\n\nimport { SafeMath } from \"zeppelin-solidity/contracts/math/SafeMath.sol\";\nimport { Schedulable } from \"./crowdsale/Schedulable.sol\";\n\n\n/**\n * @title Mintable token interface\n * @author Jakub Stefanski (https://github.com/jstefanski)\n */\ncontract Mintable {\n    uint256 public decimals;\n\n    function mint(address to, uint256 amount) public;\n}\n\n\n/**\n * @title Pre-ICO Crowdsale with constant price and limited supply\n * @author Jakub Stefanski (https://github.com/jstefanski)\n */\ncontract PreIcoCrowdsale is Schedulable {\n\n    using SafeMath for uint256;\n\n    /**\n     * @dev Address of contribution wallet\n     */\n    address public wallet;\n\n    /**\n     * @dev Address of mintable token instance\n     */\n    Mintable public token;\n\n    /**\n     * @dev Current amount of tokens available for sale\n     */\n    uint256 public availableAmount;\n\n    /**\n     * @dev Price of token in Wei\n     */\n    uint256 public price;\n\n    /**\n     * @dev Minimum ETH value sent as contribution\n     */\n    uint256 public minValue;\n\n    /**\n     * @dev Indicates whether contribution identified by bytes32 id is already registered\n     */\n    mapping (bytes32 => bool) public isContributionRegistered;\n\n    function PreIcoCrowdsale(\n        address _wallet,\n        Mintable _token,\n        uint256 _availableAmount,\n        uint256 _price,\n        uint256 _minValue\n    )\n        public\n        onlyValid(_wallet)\n        onlyValid(_token)\n        onlyNotZero(_availableAmount)\n        onlyNotZero(_price)\n    {\n        wallet = _wallet;\n        token = _token;\n        availableAmount = _availableAmount;\n        price = _price;\n        minValue = _minValue;\n    }\n\n    /**\n     * @dev Contribution is accepted\n     * @param contributor address The recipient of the tokens\n     * @param value uint256 The amount of contributed ETH\n     * @param amount uint256 The amount of tokens\n     */\n    event ContributionAccepted(address indexed contributor, uint256 value, uint256 amount);\n\n    /**\n     * @dev Off-chain contribution registered\n     * @param id bytes32 A unique contribution id\n     * @param contributor address The recipient of the tokens\n     * @param amount uint256 The amount of tokens\n     */\n    event ContributionRegistered(bytes32 indexed id, address indexed contributor, uint256 amount);\n\n    modifier onlyValid(address addr) {\n        require(addr != address(0));\n        _;\n    }\n\n    modifier onlySufficientValue(uint256 value) {\n        require(value >= minValue);\n        _;\n    }\n\n    modifier onlySufficientAvailableTokens(uint256 amount) {\n        require(availableAmount >= amount);\n        _;\n    }\n\n    modifier onlyUniqueContribution(bytes32 id) {\n        require(!isContributionRegistered[id]);\n        _;\n    }\n\n    /**\n     * @dev Accept ETH transfers as contributions\n     */\n    function () public payable {\n        acceptContribution(msg.sender, msg.value);\n    }\n\n    /**\n     * @dev Contribute ETH in exchange for tokens\n     * @param contributor address The address that receives tokens\n     */\n    function contribute(address contributor) public payable returns (uint256) {\n        return acceptContribution(contributor, msg.value);\n    }\n\n    /**\n     * @dev Register contribution with given id\n     * @param id bytes32 A unique contribution id\n     * @param contributor address The recipient of the tokens\n     * @param amount uint256 The amount of tokens\n     */\n    function registerContribution(bytes32 id, address contributor, uint256 amount)\n        public\n        onlyOwner\n        onlyActive\n        onlyValid(contributor)\n        onlyNotZero(amount)\n        onlyUniqueContribution(id)\n    {\n        isContributionRegistered[id] = true;\n        mintTokens(contributor, amount);\n\n        ContributionRegistered(id, contributor, amount);\n    }\n\n    /**\n     * @dev Calculate amount of ONL tokens received for given ETH value\n     * @param value uint256 Contribution value in ETH\n     * @return uint256 Amount of received ONL tokens\n     */\n    function calculateContribution(uint256 value) public view returns (uint256) {\n        return value.mul(10 ** token.decimals()).div(price);\n    }\n\n    function acceptContribution(address contributor, uint256 value)\n        private\n        onlyActive\n        onlyValid(contributor)\n        onlySufficientValue(value)\n        returns (uint256)\n    {\n        uint256 amount = calculateContribution(value);\n        mintTokens(contributor, amount);\n\n        wallet.transfer(value);\n\n        ContributionAccepted(contributor, value, amount);\n\n        return amount;\n    }\n\n    function mintTokens(address to, uint256 amount)\n        private\n        onlySufficientAvailableTokens(amount)\n    {\n        availableAmount = availableAmount.sub(amount);\n        token.mint(to, amount);\n    }\n}\n",
  "sourcePath": "/home/js/Projects/pc/onlive/onlive-contracts/contracts/PreIcoCrowdsale.sol",
  "compiler": {
    "name": "solc",
    "version": "0.4.18+commit.9cf6e910.Emscripten.clang"
  },
  "schemaVersion": "1.0.1",
  "updatedAt": "2018-01-17T11:07:43.288Z"
}