{
  "contractName": "ReleasableToken",
  "abi": [
    {
      "constant": false,
      "inputs": [
        {
          "name": "_spender",
          "type": "address"
        },
        {
          "name": "_value",
          "type": "uint256"
        }
      ],
      "name": "approve",
      "outputs": [
        {
          "name": "",
          "type": "bool"
        }
      ],
      "payable": false,
      "stateMutability": "nonpayable",
      "type": "function"
    },
    {
      "constant": true,
      "inputs": [],
      "name": "releaseManager",
      "outputs": [
        {
          "name": "",
          "type": "address"
        }
      ],
      "payable": false,
      "stateMutability": "view",
      "type": "function"
    },
    {
      "constant": true,
      "inputs": [],
      "name": "totalSupply",
      "outputs": [
        {
          "name": "",
          "type": "uint256"
        }
      ],
      "payable": false,
      "stateMutability": "view",
      "type": "function"
    },
    {
      "constant": false,
      "inputs": [
        {
          "name": "from",
          "type": "address"
        },
        {
          "name": "to",
          "type": "address"
        },
        {
          "name": "amount",
          "type": "uint256"
        }
      ],
      "name": "transferFrom",
      "outputs": [
        {
          "name": "",
          "type": "bool"
        }
      ],
      "payable": false,
      "stateMutability": "nonpayable",
      "type": "function"
    },
    {
      "constant": false,
      "inputs": [
        {
          "name": "addr",
          "type": "address"
        }
      ],
      "name": "approveTransferManager",
      "outputs": [],
      "payable": false,
      "stateMutability": "nonpayable",
      "type": "function"
    },
    {
      "constant": false,
      "inputs": [
        {
          "name": "_spender",
          "type": "address"
        },
        {
          "name": "_subtractedValue",
          "type": "uint256"
        }
      ],
      "name": "decreaseApproval",
      "outputs": [
        {
          "name": "",
          "type": "bool"
        }
      ],
      "payable": false,
      "stateMutability": "nonpayable",
      "type": "function"
    },
    {
      "constant": true,
      "inputs": [
        {
          "name": "_owner",
          "type": "address"
        }
      ],
      "name": "balanceOf",
      "outputs": [
        {
          "name": "balance",
          "type": "uint256"
        }
      ],
      "payable": false,
      "stateMutability": "view",
      "type": "function"
    },
    {
      "constant": false,
      "inputs": [
        {
          "name": "addr",
          "type": "address"
        }
      ],
      "name": "setReleaseManager",
      "outputs": [],
      "payable": false,
      "stateMutability": "nonpayable",
      "type": "function"
    },
    {
      "constant": false,
      "inputs": [
        {
          "name": "addr",
          "type": "address"
        }
      ],
      "name": "revokeTransferManager",
      "outputs": [],
      "payable": false,
      "stateMutability": "nonpayable",
      "type": "function"
    },
    {
      "constant": false,
      "inputs": [],
      "name": "release",
      "outputs": [],
      "payable": false,
      "stateMutability": "nonpayable",
      "type": "function"
    },
    {
      "constant": true,
      "inputs": [],
      "name": "owner",
      "outputs": [
        {
          "name": "",
          "type": "address"
        }
      ],
      "payable": false,
      "stateMutability": "view",
      "type": "function"
    },
    {
      "constant": true,
      "inputs": [],
      "name": "released",
      "outputs": [
        {
          "name": "",
          "type": "bool"
        }
      ],
      "payable": false,
      "stateMutability": "view",
      "type": "function"
    },
    {
      "constant": false,
      "inputs": [
        {
          "name": "to",
          "type": "address"
        },
        {
          "name": "amount",
          "type": "uint256"
        }
      ],
      "name": "transfer",
      "outputs": [
        {
          "name": "",
          "type": "bool"
        }
      ],
      "payable": false,
      "stateMutability": "nonpayable",
      "type": "function"
    },
    {
      "constant": true,
      "inputs": [
        {
          "name": "",
          "type": "address"
        }
      ],
      "name": "transferManagers",
      "outputs": [
        {
          "name": "",
          "type": "bool"
        }
      ],
      "payable": false,
      "stateMutability": "view",
      "type": "function"
    },
    {
      "constant": false,
      "inputs": [
        {
          "name": "_spender",
          "type": "address"
        },
        {
          "name": "_addedValue",
          "type": "uint256"
        }
      ],
      "name": "increaseApproval",
      "outputs": [
        {
          "name": "",
          "type": "bool"
        }
      ],
      "payable": false,
      "stateMutability": "nonpayable",
      "type": "function"
    },
    {
      "constant": true,
      "inputs": [
        {
          "name": "_owner",
          "type": "address"
        },
        {
          "name": "_spender",
          "type": "address"
        }
      ],
      "name": "allowance",
      "outputs": [
        {
          "name": "",
          "type": "uint256"
        }
      ],
      "payable": false,
      "stateMutability": "view",
      "type": "function"
    },
    {
      "constant": false,
      "inputs": [
        {
          "name": "newOwner",
          "type": "address"
        }
      ],
      "name": "transferOwnership",
      "outputs": [],
      "payable": false,
      "stateMutability": "nonpayable",
      "type": "function"
    },
    {
      "anonymous": false,
      "inputs": [
        {
          "indexed": false,
          "name": "addr",
          "type": "address"
        }
      ],
      "name": "ReleaseManagerSet",
      "type": "event"
    },
    {
      "anonymous": false,
      "inputs": [
        {
          "indexed": false,
          "name": "addr",
          "type": "address"
        }
      ],
      "name": "TransferManagerApproved",
      "type": "event"
    },
    {
      "anonymous": false,
      "inputs": [
        {
          "indexed": false,
          "name": "addr",
          "type": "address"
        }
      ],
      "name": "TransferManagerRevoked",
      "type": "event"
    },
    {
      "anonymous": false,
      "inputs": [],
      "name": "Released",
      "type": "event"
    },
    {
      "anonymous": false,
      "inputs": [
        {
          "indexed": true,
          "name": "previousOwner",
          "type": "address"
        },
        {
          "indexed": true,
          "name": "newOwner",
          "type": "address"
        }
      ],
      "name": "OwnershipTransferred",
      "type": "event"
    },
    {
      "anonymous": false,
      "inputs": [
        {
          "indexed": true,
          "name": "owner",
          "type": "address"
        },
        {
          "indexed": true,
          "name": "spender",
          "type": "address"
        },
        {
          "indexed": false,
          "name": "value",
          "type": "uint256"
        }
      ],
      "name": "Approval",
      "type": "event"
    },
    {
      "anonymous": false,
      "inputs": [
        {
          "indexed": true,
          "name": "from",
          "type": "address"
        },
        {
          "indexed": true,
          "name": "to",
          "type": "address"
        },
        {
          "indexed": false,
          "name": "value",
          "type": "uint256"
        }
      ],
      "name": "Transfer",
      "type": "event"
    }
  ],
  "bytecode": "0x606060405233600360006101000a81548173ffffffffffffffffffffffffffffffffffffffff021916908373ffffffffffffffffffffffffffffffffffffffff1602179055506119f5806100546000396000f3006060604052600436106100f1576000357c0100000000000000000000000000000000000000000000000000000000900463ffffffff168063095ea7b3146100f65780630d78573e1461015057806318160ddd146101a557806323b872dd146101ce5780633a23a48314610247578063661884631461028057806370a08231146102da57806379848daa146103275780637beccd701461036057806386d1a69f146103995780638da5cb5b146103ae5780639613252114610403578063a9059cbb14610430578063c22f0ee21461048a578063d73dd623146104db578063dd62ed3e14610535578063f2fde38b146105a1575b600080fd5b341561010157600080fd5b610136600480803573ffffffffffffffffffffffffffffffffffffffff169060200190919080359060200190919050506105da565b604051808215151515815260200191505060405180910390f35b341561015b57600080fd5b6101636106cc565b604051808273ffffffffffffffffffffffffffffffffffffffff1673ffffffffffffffffffffffffffffffffffffffff16815260200191505060405180910390f35b34156101b057600080fd5b6101b86106f2565b6040518082815260200191505060405180910390f35b34156101d957600080fd5b61022d600480803573ffffffffffffffffffffffffffffffffffffffff1690602001909190803573ffffffffffffffffffffffffffffffffffffffff169060200190919080359060200190919050506106f8565b604051808215151515815260200191505060405180910390f35b341561025257600080fd5b61027e600480803573ffffffffffffffffffffffffffffffffffffffff1690602001909190505061077f565b005b341561028b57600080fd5b6102c0600480803573ffffffffffffffffffffffffffffffffffffffff169060200190919080359060200190919050506108b5565b604051808215151515815260200191505060405180910390f35b34156102e557600080fd5b610311600480803573ffffffffffffffffffffffffffffffffffffffff16906020019091905050610b46565b6040518082815260200191505060405180910390f35b341561033257600080fd5b61035e600480803573ffffffffffffffffffffffffffffffffffffffff16906020019091905050610b8f565b005b341561036b57600080fd5b610397600480803573ffffffffffffffffffffffffffffffffffffffff16906020019091905050610cae565b005b34156103a457600080fd5b6103ac610e35565b005b34156103b957600080fd5b6103c1610ef6565b604051808273ffffffffffffffffffffffffffffffffffffffff1673ffffffffffffffffffffffffffffffffffffffff16815260200191505060405180910390f35b341561040e57600080fd5b610416610f1c565b604051808215151515815260200191505060405180910390f35b341561043b57600080fd5b610470600480803573ffffffffffffffffffffffffffffffffffffffff16906020019091908035906020019091905050610f2f565b604051808215151515815260200191505060405180910390f35b341561049557600080fd5b6104c1600480803573ffffffffffffffffffffffffffffffffffffffff16906020019091905050610fb4565b604051808215151515815260200191505060405180910390f35b34156104e657600080fd5b61051b600480803573ffffffffffffffffffffffffffffffffffffffff16906020019091908035906020019091905050610fd4565b604051808215151515815260200191505060405180910390f35b341561054057600080fd5b61058b600480803573ffffffffffffffffffffffffffffffffffffffff1690602001909190803573ffffffffffffffffffffffffffffffffffffffff169060200190919050506111d0565b6040518082815260200191505060405180910390f35b34156105ac57600080fd5b6105d8600480803573ffffffffffffffffffffffffffffffffffffffff16906020019091905050611257565b005b600081600260003373ffffffffffffffffffffffffffffffffffffffff1673ffffffffffffffffffffffffffffffffffffffff16815260200190815260200160002060008573ffffffffffffffffffffffffffffffffffffffff1673ffffffffffffffffffffffffffffffffffffffff168152602001908152602001600020819055508273ffffffffffffffffffffffffffffffffffffffff163373ffffffffffffffffffffffffffffffffffffffff167f8c5be1e5ebec7d5bd14f71427d1e84f3dd0314c0f7b2291e5b200ac8c7c3b925846040518082815260200191505060405180910390a36001905092915050565b600460009054906101000a900473ffffffffffffffffffffffffffffffffffffffff1681565b60005481565b600083600360149054906101000a900460ff16151561076a57600560008273ffffffffffffffffffffffffffffffffffffffff1673ffffffffffffffffffffffffffffffffffffffff16815260200190815260200160002060009054906101000a900460ff16151561076957600080fd5b5b6107758585856113af565b9150509392505050565b600360009054906101000a900473ffffffffffffffffffffffffffffffffffffffff1673ffffffffffffffffffffffffffffffffffffffff163373ffffffffffffffffffffffffffffffffffffffff161415156107db57600080fd5b600360149054906101000a900460ff161515156107f757600080fd5b6001600560008373ffffffffffffffffffffffffffffffffffffffff1673ffffffffffffffffffffffffffffffffffffffff16815260200190815260200160002060006101000a81548160ff0219169083151502179055507f23724ffd98c8f39c7b5c43982c298ac0cdc6e7848155cb4ad39d06f54692a72e81604051808273ffffffffffffffffffffffffffffffffffffffff1673ffffffffffffffffffffffffffffffffffffffff16815260200191505060405180910390a150565b600080600260003373ffffffffffffffffffffffffffffffffffffffff1673ffffffffffffffffffffffffffffffffffffffff16815260200190815260200160002060008573ffffffffffffffffffffffffffffffffffffffff1673ffffffffffffffffffffffffffffffffffffffff168152602001908152602001600020549050808311156109c6576000600260003373ffffffffffffffffffffffffffffffffffffffff1673ffffffffffffffffffffffffffffffffffffffff16815260200190815260200160002060008673ffffffffffffffffffffffffffffffffffffffff1673ffffffffffffffffffffffffffffffffffffffff16815260200190815260200160002081905550610a5a565b6109d9838261176e90919063ffffffff16565b600260003373ffffffffffffffffffffffffffffffffffffffff1673ffffffffffffffffffffffffffffffffffffffff16815260200190815260200160002060008673ffffffffffffffffffffffffffffffffffffffff1673ffffffffffffffffffffffffffffffffffffffff168152602001908152602001600020819055505b8373ffffffffffffffffffffffffffffffffffffffff163373ffffffffffffffffffffffffffffffffffffffff167f8c5be1e5ebec7d5bd14f71427d1e84f3dd0314c0f7b2291e5b200ac8c7c3b925600260003373ffffffffffffffffffffffffffffffffffffffff1673ffffffffffffffffffffffffffffffffffffffff16815260200190815260200160002060008873ffffffffffffffffffffffffffffffffffffffff1673ffffffffffffffffffffffffffffffffffffffff168152602001908152602001600020546040518082815260200191505060405180910390a3600191505092915050565b6000600160008373ffffffffffffffffffffffffffffffffffffffff1673ffffffffffffffffffffffffffffffffffffffff168152602001908152602001600020549050919050565b600360009054906101000a900473ffffffffffffffffffffffffffffffffffffffff1673ffffffffffffffffffffffffffffffffffffffff163373ffffffffffffffffffffffffffffffffffffffff16141515610beb57600080fd5b600360149054906101000a900460ff16151515610c0757600080fd5b80600460006101000a81548173ffffffffffffffffffffffffffffffffffffffff021916908373ffffffffffffffffffffffffffffffffffffffff1602179055507f66234c4af04fd27783c022105ed85b455d750f8d0ef06f46e92c9eda4b3a505e81604051808273ffffffffffffffffffffffffffffffffffffffff1673ffffffffffffffffffffffffffffffffffffffff16815260200191505060405180910390a150565b600360009054906101000a900473ffffffffffffffffffffffffffffffffffffffff1673ffffffffffffffffffffffffffffffffffffffff163373ffffffffffffffffffffffffffffffffffffffff16141515610d0a57600080fd5b80600560008273ffffffffffffffffffffffffffffffffffffffff1673ffffffffffffffffffffffffffffffffffffffff16815260200190815260200160002060009054906101000a900460ff161515610d6357600080fd5b600360149054906101000a900460ff16151515610d7f57600080fd5b600560008373ffffffffffffffffffffffffffffffffffffffff1673ffffffffffffffffffffffffffffffffffffffff16815260200190815260200160002060006101000a81549060ff02191690557ff6eb58de45158f4d163191f2e8eaa27e1f70e2fa7207360d651843ab3f32772a82604051808273ffffffffffffffffffffffffffffffffffffffff1673ffffffffffffffffffffffffffffffffffffffff16815260200191505060405180910390a15050565b600460009054906101000a900473ffffffffffffffffffffffffffffffffffffffff1673ffffffffffffffffffffffffffffffffffffffff163373ffffffffffffffffffffffffffffffffffffffff16141515610e9157600080fd5b600360149054906101000a900460ff16151515610ead57600080fd5b6001600360146101000a81548160ff0219169083151502179055507f20d29efe076941f73e5574acb023c424d63cd6d3d12eb5ac3108a5eaf177daed60405160405180910390a1565b600360009054906101000a900473ffffffffffffffffffffffffffffffffffffffff1681565b600360149054906101000a900460ff1681565b600033600360149054906101000a900460ff161515610fa157600560008273ffffffffffffffffffffffffffffffffffffffff1673ffffffffffffffffffffffffffffffffffffffff16815260200190815260200160002060009054906101000a900460ff161515610fa057600080fd5b5b610fab8484611787565b91505092915050565b60056020528060005260406000206000915054906101000a900460ff1681565b600061106582600260003373ffffffffffffffffffffffffffffffffffffffff1673ffffffffffffffffffffffffffffffffffffffff16815260200190815260200160002060008673ffffffffffffffffffffffffffffffffffffffff1673ffffffffffffffffffffffffffffffffffffffff168152602001908152602001600020546119ab90919063ffffffff16565b600260003373ffffffffffffffffffffffffffffffffffffffff1673ffffffffffffffffffffffffffffffffffffffff16815260200190815260200160002060008573ffffffffffffffffffffffffffffffffffffffff1673ffffffffffffffffffffffffffffffffffffffff168152602001908152602001600020819055508273ffffffffffffffffffffffffffffffffffffffff163373ffffffffffffffffffffffffffffffffffffffff167f8c5be1e5ebec7d5bd14f71427d1e84f3dd0314c0f7b2291e5b200ac8c7c3b925600260003373ffffffffffffffffffffffffffffffffffffffff1673ffffffffffffffffffffffffffffffffffffffff16815260200190815260200160002060008773ffffffffffffffffffffffffffffffffffffffff1673ffffffffffffffffffffffffffffffffffffffff168152602001908152602001600020546040518082815260200191505060405180910390a36001905092915050565b6000600260008473ffffffffffffffffffffffffffffffffffffffff1673ffffffffffffffffffffffffffffffffffffffff16815260200190815260200160002060008373ffffffffffffffffffffffffffffffffffffffff1673ffffffffffffffffffffffffffffffffffffffff16815260200190815260200160002054905092915050565b600360009054906101000a900473ffffffffffffffffffffffffffffffffffffffff1673ffffffffffffffffffffffffffffffffffffffff163373ffffffffffffffffffffffffffffffffffffffff161415156112b357600080fd5b600073ffffffffffffffffffffffffffffffffffffffff168173ffffffffffffffffffffffffffffffffffffffff16141515156112ef57600080fd5b8073ffffffffffffffffffffffffffffffffffffffff16600360009054906101000a900473ffffffffffffffffffffffffffffffffffffffff1673ffffffffffffffffffffffffffffffffffffffff167f8be0079c531659141344cd1fd0a4f28419497f9722a3daafe3b4186f6b6457e060405160405180910390a380600360006101000a81548173ffffffffffffffffffffffffffffffffffffffff021916908373ffffffffffffffffffffffffffffffffffffffff16021790555050565b60008073ffffffffffffffffffffffffffffffffffffffff168373ffffffffffffffffffffffffffffffffffffffff16141515156113ec57600080fd5b600160008573ffffffffffffffffffffffffffffffffffffffff1673ffffffffffffffffffffffffffffffffffffffff16815260200190815260200160002054821115151561143a57600080fd5b600260008573ffffffffffffffffffffffffffffffffffffffff1673ffffffffffffffffffffffffffffffffffffffff16815260200190815260200160002060003373ffffffffffffffffffffffffffffffffffffffff1673ffffffffffffffffffffffffffffffffffffffff1681526020019081526020016000205482111515156114c557600080fd5b61151782600160008773ffffffffffffffffffffffffffffffffffffffff1673ffffffffffffffffffffffffffffffffffffffff1681526020019081526020016000205461176e90919063ffffffff16565b600160008673ffffffffffffffffffffffffffffffffffffffff1673ffffffffffffffffffffffffffffffffffffffff168152602001908152602001600020819055506115ac82600160008673ffffffffffffffffffffffffffffffffffffffff1673ffffffffffffffffffffffffffffffffffffffff168152602001908152602001600020546119ab90919063ffffffff16565b600160008573ffffffffffffffffffffffffffffffffffffffff1673ffffffffffffffffffffffffffffffffffffffff1681526020019081526020016000208190555061167e82600260008773ffffffffffffffffffffffffffffffffffffffff1673ffffffffffffffffffffffffffffffffffffffff16815260200190815260200160002060003373ffffffffffffffffffffffffffffffffffffffff1673ffffffffffffffffffffffffffffffffffffffff1681526020019081526020016000205461176e90919063ffffffff16565b600260008673ffffffffffffffffffffffffffffffffffffffff1673ffffffffffffffffffffffffffffffffffffffff16815260200190815260200160002060003373ffffffffffffffffffffffffffffffffffffffff1673ffffffffffffffffffffffffffffffffffffffff168152602001908152602001600020819055508273ffffffffffffffffffffffffffffffffffffffff168473ffffffffffffffffffffffffffffffffffffffff167fddf252ad1be2c89b69c2b068fc378daa952ba7f163c4a11628f55a4df523b3ef846040518082815260200191505060405180910390a3600190509392505050565b600082821115151561177c57fe5b818303905092915050565b60008073ffffffffffffffffffffffffffffffffffffffff168373ffffffffffffffffffffffffffffffffffffffff16141515156117c457600080fd5b600160003373ffffffffffffffffffffffffffffffffffffffff1673ffffffffffffffffffffffffffffffffffffffff16815260200190815260200160002054821115151561181257600080fd5b61186482600160003373ffffffffffffffffffffffffffffffffffffffff1673ffffffffffffffffffffffffffffffffffffffff1681526020019081526020016000205461176e90919063ffffffff16565b600160003373ffffffffffffffffffffffffffffffffffffffff1673ffffffffffffffffffffffffffffffffffffffff168152602001908152602001600020819055506118f982600160008673ffffffffffffffffffffffffffffffffffffffff1673ffffffffffffffffffffffffffffffffffffffff168152602001908152602001600020546119ab90919063ffffffff16565b600160008573ffffffffffffffffffffffffffffffffffffffff1673ffffffffffffffffffffffffffffffffffffffff168152602001908152602001600020819055508273ffffffffffffffffffffffffffffffffffffffff163373ffffffffffffffffffffffffffffffffffffffff167fddf252ad1be2c89b69c2b068fc378daa952ba7f163c4a11628f55a4df523b3ef846040518082815260200191505060405180910390a36001905092915050565b60008082840190508381101515156119bf57fe5b80915050929150505600a165627a7a7230582095cd6c1ffa4d946f2c01f77ec2eb19b2d791316bb4e3b5e0f01125d8e09d820b0029",
  "source": "pragma solidity 0.4.18;\n\nimport { StandardToken } from \"zeppelin-solidity/contracts/token/StandardToken.sol\";\nimport { Ownable } from \"zeppelin-solidity/contracts/ownership/Ownable.sol\";\n\n\n/**\n * @title ERC20 token with manual initial lock up period\n * @author Jakub Stefanski\n */\ncontract ReleasableToken is StandardToken, Ownable {\n\n    /**\n     * @dev Controls whether token transfers are enabled\n     * @dev If false, token is in transfer lock up period.\n     */\n    bool public released;\n\n    /**\n     * @dev Contract or EOA that can enable token transfers\n     */\n    address public releaseManager;\n\n    /**\n     * @dev Map of addresses allowed to transfer tokens despite the lock up period\n     */\n    mapping (address => bool) public transferManagers;\n\n    /**\n     * @dev Specified address set as a Release Manager\n     * @param addr address The approved address\n     */\n    event ReleaseManagerSet(address addr);\n\n    /**\n     * @dev Approves specified address as Transfer Manager\n     * @param addr address The approved address\n     */\n    event TransferManagerApproved(address addr);\n\n    /**\n     * @dev Revokes specified address as Transfer Manager\n     * @param addr address The denied address\n     */\n    event TransferManagerRevoked(address addr);\n\n    /**\n     * @dev Marks token as released (transferable)\n     */\n    event Released();\n\n    /**\n     * @dev Token is released or specified address is transfer manager\n     */\n    modifier onlyTransferableFrom(address from) {\n        if (!released) {\n            require(transferManagers[from]);\n        }\n\n        _;\n    }\n\n    /**\n     * @dev Specified address is transfer manager\n     */\n    modifier onlyTransferManager(address addr) {\n        require(transferManagers[addr]);\n        _;\n    }\n\n    /**\n     * @dev Sender is release manager\n     */\n    modifier onlyReleaseManager() {\n        require(msg.sender == releaseManager);\n        _;\n    }\n\n    /**\n     * @dev Token is released (transferable)\n     */\n    modifier onlyReleased() {\n        require(released);\n        _;\n    }\n\n    /**\n     * @dev Token is in lock up period\n     */\n    modifier onlyNotReleased() {\n        require(!released);\n        _;\n    }\n\n    /**\n     * @dev Set release manager if token not released yet\n     * @param addr address The new Release Manager address\n     */\n    function setReleaseManager(address addr)\n        public\n        onlyOwner\n        onlyNotReleased\n    {\n        releaseManager = addr;\n\n        ReleaseManagerSet(addr);\n    }\n\n    /**\n     * @dev Approve specified address to make transfers in lock up period\n     * @param addr address The approved Transfer Manager address\n     */\n    function approveTransferManager(address addr)\n        public\n        onlyOwner\n        onlyNotReleased\n    {\n        transferManagers[addr] = true;\n\n        TransferManagerApproved(addr);\n    }\n\n    /**\n     * @dev Forbid specified address to make transfers in lock up period\n     * @param addr address The denied Transfer Manager address\n     */\n    function revokeTransferManager(address addr)\n        public\n        onlyOwner\n        onlyTransferManager(addr)\n        onlyNotReleased\n    {\n        delete transferManagers[addr];\n\n        TransferManagerRevoked(addr);\n    }\n\n    /**\n     * @dev Release token and makes it transferable\n     */\n    function release()\n        public\n        onlyReleaseManager\n        onlyNotReleased\n    {\n        released = true;\n\n        Released();\n    }\n\n    /**\n     * @dev Transfer token to a specified address\n     * @dev Available only after token release\n     * @param to address The address to transfer to\n     * @param amount uint256 The amount to be transferred\n     */\n    function transfer(\n        address to,\n        uint256 amount\n    )\n        public\n        onlyTransferableFrom(msg.sender)\n        returns (bool)\n    {\n        return super.transfer(to, amount);\n    }\n\n    /**\n     * @dev Transfer tokens from one address to another\n     * @dev Available only after token release\n     * @param from address The address which you want to send tokens from\n     * @param to address The address which you want to transfer to\n     * @param amount uint256 the amount of tokens to be transferred\n     */\n    function transferFrom(\n        address from,\n        address to,\n        uint256 amount\n    )\n        public\n        onlyTransferableFrom(from)\n        returns (bool)\n    {\n        return super.transferFrom(from, to, amount);\n    }\n}\n",
  "sourcePath": "/home/js/Projects/pc/onlive/onlive-contracts/contracts/token/ReleasableToken.sol",
  "compiler": {
    "name": "solc",
    "version": "0.4.18+commit.9cf6e910.Emscripten.clang"
  },
  "schemaVersion": "1.0.1",
  "updatedAt": "2018-01-02T01:01:08.178Z"
}