{
  "contractName": "Schedulable",
  "abi": [
    {
      "constant": true,
      "inputs": [],
      "name": "endBlock",
      "outputs": [
        {
          "name": "",
          "type": "uint256"
        }
      ],
      "payable": false,
      "stateMutability": "view",
      "type": "function"
    },
    {
      "constant": false,
      "inputs": [
        {
          "name": "_startBlock",
          "type": "uint256"
        },
        {
          "name": "_endBlock",
          "type": "uint256"
        }
      ],
      "name": "schedule",
      "outputs": [],
      "payable": false,
      "stateMutability": "nonpayable",
      "type": "function"
    },
    {
      "constant": true,
      "inputs": [],
      "name": "isActive",
      "outputs": [
        {
          "name": "",
          "type": "bool"
        }
      ],
      "payable": false,
      "stateMutability": "view",
      "type": "function"
    },
    {
      "constant": true,
      "inputs": [],
      "name": "startBlock",
      "outputs": [
        {
          "name": "",
          "type": "uint256"
        }
      ],
      "payable": false,
      "stateMutability": "view",
      "type": "function"
    },
    {
      "constant": true,
      "inputs": [],
      "name": "isScheduled",
      "outputs": [
        {
          "name": "",
          "type": "bool"
        }
      ],
      "payable": false,
      "stateMutability": "view",
      "type": "function"
    },
    {
      "constant": true,
      "inputs": [],
      "name": "owner",
      "outputs": [
        {
          "name": "",
          "type": "address"
        }
      ],
      "payable": false,
      "stateMutability": "view",
      "type": "function"
    },
    {
      "constant": false,
      "inputs": [
        {
          "name": "newOwner",
          "type": "address"
        }
      ],
      "name": "transferOwnership",
      "outputs": [],
      "payable": false,
      "stateMutability": "nonpayable",
      "type": "function"
    },
    {
      "anonymous": false,
      "inputs": [
        {
          "indexed": false,
          "name": "startBlock",
          "type": "uint256"
        },
        {
          "indexed": false,
          "name": "endBlock",
          "type": "uint256"
        }
      ],
      "name": "Scheduled",
      "type": "event"
    },
    {
      "anonymous": false,
      "inputs": [
        {
          "indexed": true,
          "name": "previousOwner",
          "type": "address"
        },
        {
          "indexed": true,
          "name": "newOwner",
          "type": "address"
        }
      ],
      "name": "OwnershipTransferred",
      "type": "event"
    }
  ],
  "bytecode": "0x6060604052336000806101000a81548173ffffffffffffffffffffffffffffffffffffffff021916908373ffffffffffffffffffffffffffffffffffffffff1602179055506104c7806100536000396000f300606060405260043610610083576000357c0100000000000000000000000000000000000000000000000000000000900463ffffffff168063083c6323146100885780631d9b1d6f146100b157806322f3e2d4146100dd57806348cd4cb11461010a5780637ee80d17146101335780638da5cb5b14610160578063f2fde38b146101b5575b600080fd5b341561009357600080fd5b61009b6101ee565b6040518082815260200191505060405180910390f35b34156100bc57600080fd5b6100db60048080359060200190919080359060200190919050506101f4565b005b34156100e857600080fd5b6100f06102e6565b604051808215151515815260200191505060405180910390f35b341561011557600080fd5b61011d610301565b6040518082815260200191505060405180910390f35b341561013e57600080fd5b610146610307565b604051808215151515815260200191505060405180910390f35b341561016b57600080fd5b610173610321565b604051808273ffffffffffffffffffffffffffffffffffffffff1673ffffffffffffffffffffffffffffffffffffffff16815260200191505060405180910390f35b34156101c057600080fd5b6101ec600480803573ffffffffffffffffffffffffffffffffffffffff16906020019091905050610346565b005b60025481565b6000809054906101000a900473ffffffffffffffffffffffffffffffffffffffff1673ffffffffffffffffffffffffffffffffffffffff163373ffffffffffffffffffffffffffffffffffffffff1614151561024f57600080fd5b610257610307565b15151561026357600080fd5b816000811415151561027457600080fd5b816000811415151561028557600080fd5b828410151561029357600080fd5b83600181905550826002819055507feb869b8b503112df6f227389651736ee39966235838a652775ed23fddd087f8f8484604051808381526020018281526020019250505060405180910390a150505050565b600060015443101580156102fc57506002544311155b905090565b60015481565b60008060015411801561031c57506000600254115b905090565b6000809054906101000a900473ffffffffffffffffffffffffffffffffffffffff1681565b6000809054906101000a900473ffffffffffffffffffffffffffffffffffffffff1673ffffffffffffffffffffffffffffffffffffffff163373ffffffffffffffffffffffffffffffffffffffff161415156103a157600080fd5b600073ffffffffffffffffffffffffffffffffffffffff168173ffffffffffffffffffffffffffffffffffffffff16141515156103dd57600080fd5b8073ffffffffffffffffffffffffffffffffffffffff166000809054906101000a900473ffffffffffffffffffffffffffffffffffffffff1673ffffffffffffffffffffffffffffffffffffffff167f8be0079c531659141344cd1fd0a4f28419497f9722a3daafe3b4186f6b6457e060405160405180910390a3806000806101000a81548173ffffffffffffffffffffffffffffffffffffffff021916908373ffffffffffffffffffffffffffffffffffffffff160217905550505600a165627a7a72305820131b677b95eefd0269aa4559894baaee96980276b96562182b9c94a783113f930029",
  "source": "pragma solidity 0.4.18;\n\nimport { Ownable } from \"zeppelin-solidity/contracts/ownership/Ownable.sol\";\n\n\n/**\n * @title One-time schedulable contract\n * @author Jakub Stefanski (https://github.com/jstefanski)\n */\ncontract Schedulable is Ownable {\n\n    /**\n     * @dev First block when contract is active (inclusive). Zero if not scheduled.\n     */\n    uint256 public startBlock;\n\n    /**\n     * @dev Last block when contract is active (inclusive). Zero if not scheduled.\n     */\n    uint256 public endBlock;\n\n    /**\n     * @dev Contract scheduled within given blocks\n     * @param startBlock uint256 The first block when contract is active (inclusive)\n     * @param endBlock uint256 The last block when contract is active (inclusive)\n     */\n    event Scheduled(uint256 startBlock, uint256 endBlock);\n\n    modifier onlyNotZero(uint256 value) {\n        require(value != 0);\n        _;\n    }\n\n    modifier onlyScheduled() {\n        require(isScheduled());\n        _;\n    }\n\n    modifier onlyNotScheduled() {\n        require(!isScheduled());\n        _;\n    }\n\n    modifier onlyActive() {\n        require(isActive());\n        _;\n    }\n\n    modifier onlyNotActive() {\n        require(!isActive());\n        _;\n    }\n\n    /**\n     * @dev Schedule contract activation for given block range\n     * @param _startBlock uint256 The first block when contract is active (inclusive)\n     * @param _endBlock uint256 The last block when contract is active (inclusive)\n     */\n    function schedule(uint256 _startBlock, uint256 _endBlock)\n        public\n        onlyOwner\n        onlyNotScheduled\n        onlyNotZero(_startBlock)\n        onlyNotZero(_endBlock)\n    {\n        require(_startBlock < _endBlock);\n\n        startBlock = _startBlock;\n        endBlock = _endBlock;\n\n        Scheduled(_startBlock, _endBlock);\n    }\n\n    /**\n     * @dev Check whether activation is scheduled\n     */\n    function isScheduled() public view returns (bool) {\n        return startBlock > 0 && endBlock > 0;\n    }\n\n    /**\n     * @dev Check whether contract is currently active\n     */\n    function isActive() public view returns (bool) {\n        return block.number >= startBlock && block.number <= endBlock;\n    }\n}\n",
  "sourcePath": "/home/js/Projects/pc/onlive/onlive-contracts/contracts/crowdsale/Schedulable.sol",
  "compiler": {
    "name": "solc",
    "version": "0.4.18+commit.9cf6e910.Emscripten.clang"
  },
  "schemaVersion": "1.0.1",
  "updatedAt": "2018-01-17T11:03:41.953Z"
}