{
  "contractName": "TimeSchedulable",
  "abi": [
    {
      "constant": false,
      "inputs": [
        {
          "name": "_start",
          "type": "uint256"
        },
        {
          "name": "_end",
          "type": "uint256"
        }
      ],
      "name": "schedule",
      "outputs": [],
      "payable": false,
      "stateMutability": "nonpayable",
      "type": "function"
    },
    {
      "constant": true,
      "inputs": [],
      "name": "isActive",
      "outputs": [
        {
          "name": "",
          "type": "bool"
        }
      ],
      "payable": false,
      "stateMutability": "view",
      "type": "function"
    },
    {
      "constant": true,
      "inputs": [],
      "name": "isScheduled",
      "outputs": [
        {
          "name": "",
          "type": "bool"
        }
      ],
      "payable": false,
      "stateMutability": "view",
      "type": "function"
    },
    {
      "constant": true,
      "inputs": [],
      "name": "owner",
      "outputs": [
        {
          "name": "",
          "type": "address"
        }
      ],
      "payable": false,
      "stateMutability": "view",
      "type": "function"
    },
    {
      "constant": true,
      "inputs": [],
      "name": "start",
      "outputs": [
        {
          "name": "",
          "type": "uint256"
        }
      ],
      "payable": false,
      "stateMutability": "view",
      "type": "function"
    },
    {
      "constant": true,
      "inputs": [],
      "name": "end",
      "outputs": [
        {
          "name": "",
          "type": "uint256"
        }
      ],
      "payable": false,
      "stateMutability": "view",
      "type": "function"
    },
    {
      "constant": false,
      "inputs": [
        {
          "name": "newOwner",
          "type": "address"
        }
      ],
      "name": "transferOwnership",
      "outputs": [],
      "payable": false,
      "stateMutability": "nonpayable",
      "type": "function"
    },
    {
      "anonymous": false,
      "inputs": [
        {
          "indexed": false,
          "name": "start",
          "type": "uint256"
        },
        {
          "indexed": false,
          "name": "end",
          "type": "uint256"
        }
      ],
      "name": "Scheduled",
      "type": "event"
    },
    {
      "anonymous": false,
      "inputs": [
        {
          "indexed": true,
          "name": "previousOwner",
          "type": "address"
        },
        {
          "indexed": true,
          "name": "newOwner",
          "type": "address"
        }
      ],
      "name": "OwnershipTransferred",
      "type": "event"
    }
  ],
  "bytecode": "0x6060604052336000806101000a81548173ffffffffffffffffffffffffffffffffffffffff021916908373ffffffffffffffffffffffffffffffffffffffff1602179055506104c7806100536000396000f300606060405260043610610083576000357c0100000000000000000000000000000000000000000000000000000000900463ffffffff1680631d9b1d6f1461008857806322f3e2d4146100b45780637ee80d17146100e15780638da5cb5b1461010e578063be9a655514610163578063efbe1c1c1461018c578063f2fde38b146101b5575b600080fd5b341561009357600080fd5b6100b260048080359060200190919080359060200190919050506101ee565b005b34156100bf57600080fd5b6100c76102e0565b604051808215151515815260200191505060405180910390f35b34156100ec57600080fd5b6100f46102fb565b604051808215151515815260200191505060405180910390f35b341561011957600080fd5b610121610315565b604051808273ffffffffffffffffffffffffffffffffffffffff1673ffffffffffffffffffffffffffffffffffffffff16815260200191505060405180910390f35b341561016e57600080fd5b61017661033a565b6040518082815260200191505060405180910390f35b341561019757600080fd5b61019f610340565b6040518082815260200191505060405180910390f35b34156101c057600080fd5b6101ec600480803573ffffffffffffffffffffffffffffffffffffffff16906020019091905050610346565b005b6000809054906101000a900473ffffffffffffffffffffffffffffffffffffffff1673ffffffffffffffffffffffffffffffffffffffff163373ffffffffffffffffffffffffffffffffffffffff1614151561024957600080fd5b6102516102fb565b15151561025d57600080fd5b816000811415151561026e57600080fd5b816000811415151561027f57600080fd5b828410151561028d57600080fd5b83600181905550826002819055507feb869b8b503112df6f227389651736ee39966235838a652775ed23fddd087f8f8484604051808381526020018281526020019250505060405180910390a150505050565b600060015442101580156102f657506002544211155b905090565b60008060015411801561031057506000600254115b905090565b6000809054906101000a900473ffffffffffffffffffffffffffffffffffffffff1681565b60015481565b60025481565b6000809054906101000a900473ffffffffffffffffffffffffffffffffffffffff1673ffffffffffffffffffffffffffffffffffffffff163373ffffffffffffffffffffffffffffffffffffffff161415156103a157600080fd5b600073ffffffffffffffffffffffffffffffffffffffff168173ffffffffffffffffffffffffffffffffffffffff16141515156103dd57600080fd5b8073ffffffffffffffffffffffffffffffffffffffff166000809054906101000a900473ffffffffffffffffffffffffffffffffffffffff1673ffffffffffffffffffffffffffffffffffffffff167f8be0079c531659141344cd1fd0a4f28419497f9722a3daafe3b4186f6b6457e060405160405180910390a3806000806101000a81548173ffffffffffffffffffffffffffffffffffffffff021916908373ffffffffffffffffffffffffffffffffffffffff160217905550505600a165627a7a72305820a86f4977777ee980cd654cc2ab05fad364fc277f5da8622615c2d6fef37564e00029",
  "source": "pragma solidity 0.4.18;\n\nimport { Ownable } from \"zeppelin-solidity/contracts/ownership/Ownable.sol\";\n\n\n/**\n * @title One-time schedulable contract\n * @author Jakub Stefanski (https://github.com/jstefanski)\n * @author Dominik Króliczek (https://github.com/krolis)\n */\ncontract TimeSchedulable is Ownable {\n\n    /**\n     * @dev Contract activating timestamp. Zero if not scheduled.\n     */\n    uint256 public start;\n\n    /**\n     * @dev Contract inactivating timestamp. Zero if not scheduled.\n     */\n    uint256 public end;\n\n    /**\n     * @dev Contract scheduled within given timestamps\n     * @param start uint256 Timestamp when contract activating\n     * @param end uint256 Timestamp when contract inactivating\n     */\n    event Scheduled(uint256 start, uint256 end);\n\n    modifier onlyNotZero(uint256 value) {\n        require(value != 0);\n        _;\n    }\n\n    modifier onlyScheduled() {\n        require(isScheduled());\n        _;\n    }\n\n    modifier onlyNotScheduled() {\n        require(!isScheduled());\n        _;\n    }\n\n    modifier onlyActive() {\n        require(isActive());\n        _;\n    }\n\n    modifier onlyNotActive() {\n        require(!isActive());\n        _;\n    }\n\n    /**\n     * @dev Schedule contract activation for given timestamp range\n     */\n    function schedule(uint256 _start, uint256 _end)\n        public\n        onlyOwner\n        onlyNotScheduled\n        onlyNotZero(_start)\n        onlyNotZero(_end)\n    {\n        require(_start < _end);\n\n        start = _start;\n        end = _end;\n\n        Scheduled(_start, _end);\n    }\n\n    /**\n     * @dev Check whether activation is scheduled\n     */\n    function isScheduled() public view returns (bool) {\n        return start > 0 && end > 0;\n    }\n\n    /**\n     * @dev Check whether contract is currently active\n     */\n    function isActive() public view returns (bool) {\n        return now >= start && now <= end;\n    }\n}\n",
  "sourcePath": "/home/domino/blok/onlive-contracts/contracts/crowdsale/TimeSchedulable.sol",
  "compiler": {
    "name": "solc",
    "version": "0.4.18+commit.9cf6e910.Emscripten.clang"
  },
  "schemaVersion": "1.0.1",
  "updatedAt": "2018-02-09T15:04:49.163Z"
}