{
  "contractName": "TokenPool",
  "abi": [
    {
      "constant": true,
      "inputs": [],
      "name": "owner",
      "outputs": [
        {
          "name": "",
          "type": "address"
        }
      ],
      "payable": false,
      "stateMutability": "view",
      "type": "function"
    },
    {
      "constant": false,
      "inputs": [
        {
          "name": "poolId",
          "type": "string"
        },
        {
          "name": "to",
          "type": "address"
        },
        {
          "name": "amount",
          "type": "uint256"
        }
      ],
      "name": "transfer",
      "outputs": [],
      "payable": false,
      "stateMutability": "nonpayable",
      "type": "function"
    },
    {
      "constant": false,
      "inputs": [
        {
          "name": "poolId",
          "type": "string"
        },
        {
          "name": "availableAmount",
          "type": "uint256"
        },
        {
          "name": "lockTimestamp",
          "type": "uint256"
        }
      ],
      "name": "registerPool",
      "outputs": [],
      "payable": false,
      "stateMutability": "nonpayable",
      "type": "function"
    },
    {
      "constant": true,
      "inputs": [
        {
          "name": "poolId",
          "type": "string"
        }
      ],
      "name": "getLockTimestamp",
      "outputs": [
        {
          "name": "",
          "type": "uint256"
        }
      ],
      "payable": false,
      "stateMutability": "view",
      "type": "function"
    },
    {
      "constant": false,
      "inputs": [
        {
          "name": "newOwner",
          "type": "address"
        }
      ],
      "name": "transferOwnership",
      "outputs": [],
      "payable": false,
      "stateMutability": "nonpayable",
      "type": "function"
    },
    {
      "constant": true,
      "inputs": [],
      "name": "token",
      "outputs": [
        {
          "name": "",
          "type": "address"
        }
      ],
      "payable": false,
      "stateMutability": "view",
      "type": "function"
    },
    {
      "constant": true,
      "inputs": [
        {
          "name": "poolId",
          "type": "string"
        }
      ],
      "name": "getAvailableAmount",
      "outputs": [
        {
          "name": "",
          "type": "uint256"
        }
      ],
      "payable": false,
      "stateMutability": "view",
      "type": "function"
    },
    {
      "inputs": [
        {
          "name": "_token",
          "type": "address"
        }
      ],
      "payable": false,
      "stateMutability": "nonpayable",
      "type": "constructor"
    },
    {
      "anonymous": false,
      "inputs": [
        {
          "indexed": false,
          "name": "poolId",
          "type": "string"
        },
        {
          "indexed": false,
          "name": "amount",
          "type": "uint256"
        }
      ],
      "name": "PoolRegistered",
      "type": "event"
    },
    {
      "anonymous": false,
      "inputs": [
        {
          "indexed": false,
          "name": "poolId",
          "type": "string"
        },
        {
          "indexed": false,
          "name": "lockTimestamp",
          "type": "uint256"
        }
      ],
      "name": "PoolLocked",
      "type": "event"
    },
    {
      "anonymous": false,
      "inputs": [
        {
          "indexed": false,
          "name": "poolId",
          "type": "string"
        },
        {
          "indexed": false,
          "name": "to",
          "type": "address"
        },
        {
          "indexed": false,
          "name": "amount",
          "type": "uint256"
        }
      ],
      "name": "PoolTransferred",
      "type": "event"
    },
    {
      "anonymous": false,
      "inputs": [
        {
          "indexed": true,
          "name": "previousOwner",
          "type": "address"
        },
        {
          "indexed": true,
          "name": "newOwner",
          "type": "address"
        }
      ],
      "name": "OwnershipTransferred",
      "type": "event"
    }
  ],
  "bytecode": "0x6060604052341561000f57600080fd5b604051602080610f2f83398101604052808051906020019091905050336000806101000a81548173ffffffffffffffffffffffffffffffffffffffff021916908373ffffffffffffffffffffffffffffffffffffffff16021790555080600073ffffffffffffffffffffffffffffffffffffffff168173ffffffffffffffffffffffffffffffffffffffff16141515156100a857600080fd5b81600160006101000a81548173ffffffffffffffffffffffffffffffffffffffff021916908373ffffffffffffffffffffffffffffffffffffffff1602179055505050610e35806100fa6000396000f300606060405260043610610083576000357c0100000000000000000000000000000000000000000000000000000000900463ffffffff1680638da5cb5b14610088578063aa2fddc7146100dd578063b7c9793014610162578063bfae8867146101d1578063f2fde38b14610242578063fc0c546a1461027b578063fd3eefe9146102d0575b600080fd5b341561009357600080fd5b61009b610341565b604051808273ffffffffffffffffffffffffffffffffffffffff1673ffffffffffffffffffffffffffffffffffffffff16815260200191505060405180910390f35b34156100e857600080fd5b610160600480803590602001908201803590602001908080601f0160208091040260200160405190810160405280939291908181526020018383808284378201915050505050509190803573ffffffffffffffffffffffffffffffffffffffff16906020019091908035906020019091905050610366565b005b341561016d57600080fd5b6101cf600480803590602001908201803590602001908080601f016020809104026020016040519081016040528093929190818152602001838380828437820191505050505050919080359060200190919080359060200190919050506107d3565b005b34156101dc57600080fd5b61022c600480803590602001908201803590602001908080601f01602080910402602001604051908101604052809392919081815260200183838082843782019150505050505091905050610b85565b6040518082815260200191505060405180910390f35b341561024d57600080fd5b610279600480803573ffffffffffffffffffffffffffffffffffffffff16906020019091905050610bfd565b005b341561028657600080fd5b61028e610d52565b604051808273ffffffffffffffffffffffffffffffffffffffff1673ffffffffffffffffffffffffffffffffffffffff16815260200191505060405180910390f35b34156102db57600080fd5b61032b600480803590602001908201803590602001908080601f01602080910402602001604051908101604052809392919081815260200183838082843782019150505050505091905050610d78565b6040518082815260200191505060405180910390f35b6000809054906101000a900473ffffffffffffffffffffffffffffffffffffffff1681565b6000809054906101000a900473ffffffffffffffffffffffffffffffffffffffff1673ffffffffffffffffffffffffffffffffffffffff163373ffffffffffffffffffffffffffffffffffffffff161415156103c157600080fd5b81600073ffffffffffffffffffffffffffffffffffffffff168173ffffffffffffffffffffffffffffffffffffffff16141515156103fe57600080fd5b816000811415151561040f57600080fd5b84836002826040518082805190602001908083835b6020831015156104495780518252602082019150602081019050602083039250610424565b6001836020036101000a038019825116818451168082178552505050505050905001915050908152602001604051809103902060000154811115151561048e57600080fd5b866002816040518082805190602001908083835b6020831015156104c757805182526020820191506020810190506020830392506104a2565b6001836020036101000a0380198251168184511680821785525050505050509050019150509081526020016040518091039020600101544211151561050b57600080fd5b61058c8660028a6040518082805190602001908083835b6020831015156105475780518252602082019150602081019050602083039250610522565b6001836020036101000a038019825116818451168082178552505050505050905001915050908152602001604051809103902060000154610df090919063ffffffff16565b6002896040518082805190602001908083835b6020831015156105c4578051825260208201915060208101905060208303925061059f565b6001836020036101000a038019825116818451168082178552505050505050905001915050908152602001604051809103902060000181905550600160009054906101000a900473ffffffffffffffffffffffffffffffffffffffff1673ffffffffffffffffffffffffffffffffffffffff1663a9059cbb88886000604051602001526040518363ffffffff167c0100000000000000000000000000000000000000000000000000000000028152600401808373ffffffffffffffffffffffffffffffffffffffff1673ffffffffffffffffffffffffffffffffffffffff16815260200182815260200192505050602060405180830381600087803b15156106cb57600080fd5b6102c65a03f115156106dc57600080fd5b5050506040518051905015156106f157600080fd5b7f2d9e0202df1f26cd448052fd0d00243e3b9277d4e72a3f8caaeddc44d49a33f388888860405180806020018473ffffffffffffffffffffffffffffffffffffffff1673ffffffffffffffffffffffffffffffffffffffff168152602001838152602001828103825285818151815260200191508051906020019080838360005b8381101561078d578082015181840152602081019050610772565b50505050905090810190601f1680156107ba5780820380516001836020036101000a031916815260200191505b5094505050505060405180910390a15050505050505050565b6000809054906101000a900473ffffffffffffffffffffffffffffffffffffffff1673ffffffffffffffffffffffffffffffffffffffff163373ffffffffffffffffffffffffffffffffffffffff1614151561082e57600080fd5b816000811415151561083f57600080fd5b8360006002826040518082805190602001908083835b60208310151561087a5780518252602082019150602081019050602083039250610855565b6001836020036101000a0380198251168184511680821785525050505050509050019150509081526020016040518091039020600001541415156108bd57600080fd5b6040805190810160405280858152602001848152506002866040518082805190602001908083835b60208310151561090a57805182526020820191506020810190506020830392506108e5565b6001836020036101000a03801982511681845116808217855250505050505090500191505090815260200160405180910390206000820151816000015560208201518160010155905050600160009054906101000a900473ffffffffffffffffffffffffffffffffffffffff1673ffffffffffffffffffffffffffffffffffffffff166340c10f1930866040518363ffffffff167c0100000000000000000000000000000000000000000000000000000000028152600401808373ffffffffffffffffffffffffffffffffffffffff1673ffffffffffffffffffffffffffffffffffffffff16815260200182815260200192505050600060405180830381600087803b1515610a1857600080fd5b6102c65a03f11515610a2957600080fd5b5050507f73682748698296372afd0ec0250cb34e270b2f11465b589d173d6aeeb4f61fc085856040518080602001838152602001828103825284818151815260200191508051906020019080838360005b83811015610a95578082015181840152602081019050610a7a565b50505050905090810190601f168015610ac25780820380516001836020036101000a031916815260200191505b50935050505060405180910390a16000831115610b7e577f0a14978deb6945a9f168baa361f0fbdd02a5c50956fd280997ac84db9e49684485846040518080602001838152602001828103825284818151815260200191508051906020019080838360005b83811015610b42578082015181840152602081019050610b27565b50505050905090810190601f168015610b6f5780820380516001836020036101000a031916815260200191505b50935050505060405180910390a15b5050505050565b60006002826040518082805190602001908083835b602083101515610bbf5780518252602082019150602081019050602083039250610b9a565b6001836020036101000a0380198251168184511680821785525050505050509050019150509081526020016040518091039020600101549050919050565b6000809054906101000a900473ffffffffffffffffffffffffffffffffffffffff1673ffffffffffffffffffffffffffffffffffffffff163373ffffffffffffffffffffffffffffffffffffffff16141515610c5857600080fd5b600073ffffffffffffffffffffffffffffffffffffffff168173ffffffffffffffffffffffffffffffffffffffff1614151515610c9457600080fd5b8073ffffffffffffffffffffffffffffffffffffffff166000809054906101000a900473ffffffffffffffffffffffffffffffffffffffff1673ffffffffffffffffffffffffffffffffffffffff167f8be0079c531659141344cd1fd0a4f28419497f9722a3daafe3b4186f6b6457e060405160405180910390a3806000806101000a81548173ffffffffffffffffffffffffffffffffffffffff021916908373ffffffffffffffffffffffffffffffffffffffff16021790555050565b600160009054906101000a900473ffffffffffffffffffffffffffffffffffffffff1681565b60006002826040518082805190602001908083835b602083101515610db25780518252602082019150602081019050602083039250610d8d565b6001836020036101000a0380198251168184511680821785525050505050509050019150509081526020016040518091039020600001549050919050565b6000828211151515610dfe57fe5b8183039050929150505600a165627a7a723058201d0d3592ea940dc8ba79808e01a811d5b850fe665361c7b1423182eaaa0c4fff0029",
  "source": "pragma solidity 0.4.18;\n\nimport { ERC20Basic } from \"zeppelin-solidity/contracts/token/ERC20Basic.sol\";\nimport { Ownable } from \"zeppelin-solidity/contracts/ownership/Ownable.sol\";\nimport { SafeMath } from \"zeppelin-solidity/contracts/math/SafeMath.sol\";\n\n\n/**\n * @title Mintable token interface\n * @author Wojciech Harzowski (https://github.com/harzo)\n * @author Jakub Stefanski (https://github.com/jstefanski)\n */\ncontract MintableToken is ERC20Basic {\n    function mint(address to, uint256 amount) public;\n}\n\n\n/**\n * @title Token pools registry\n * @dev Allows to register multiple pools of token with lockup period\n * @author Wojciech Harzowski (https://github.com/harzo)\n * @author Jakub Stefanski (https://github.com/jstefanski)\n */\ncontract TokenPool is Ownable {\n\n    using SafeMath for uint256;\n    \n    /**\n     * @dev Represents registered pool\n     */\n    struct Pool {\n        uint256 availableAmount;\n        uint256 lockTimestamp;\n    }\n\n    /**\n     * @dev Address of mintable token instance\n     */\n    MintableToken public token;\n\n    /**\n     * @dev Indicates available token amounts for each pool\n     */\n    mapping (string => Pool) private pools;\n\n    modifier onlyNotZero(uint256 amount) {\n        require(amount != 0);\n        _;\n    }\n\n    modifier onlySufficientAmount(string poolId, uint256 amount) {\n        require(amount <= pools[poolId].availableAmount);\n        _;\n    }\n\n    modifier onlyUnlockedPool(string poolId) {\n        /* solhint-disable not-rely-on-time */\n        require(block.timestamp > pools[poolId].lockTimestamp);\n        /* solhint-enable not-rely-on-time */\n        _;\n    }\n\n    modifier onlyUniquePool(string poolId) {\n        require(pools[poolId].availableAmount == 0);\n        _;\n    }\n\n    modifier onlyValid(address _address) {\n        require(_address != address(0));\n        _;\n    }\n\n    function TokenPool(MintableToken _token)\n        public\n        onlyValid(_token)\n    {\n        token = _token;\n    }\n\n    /**\n     * @dev New pool registered\n     * @param poolId string The unique pool id\n     * @param amount uint256 The amount of available tokens\n     */\n    event PoolRegistered(string poolId, uint256 amount);\n\n    /**\n     * @dev Pool locked until the specified timestamp\n     * @param poolId string The unique pool id\n     * @param lockTimestamp uint256 The lock timestamp as Unix Epoch (seconds from 1970)\n     */\n    event PoolLocked(string poolId, uint256 lockTimestamp);\n\n    /**\n     * @dev Tokens transferred from pool\n     * @param poolId string The unique pool id\n     * @param amount uint256 The amount of transferred tokens\n     */\n    event PoolTransferred(string poolId, address to, uint256 amount);\n\n    /**\n     * @dev Register a new pool and mint its tokens\n     * @param poolId string The unique pool id\n     * @param availableAmount uint256 The amount of available tokens\n     * @param lockTimestamp uint256 The optional lock timestamp as Unix Epoch (seconds from 1970),\n     *                              leave zero if not applicable\n     */\n    function registerPool(string poolId, uint256 availableAmount, uint256 lockTimestamp)\n        public\n        onlyOwner\n        onlyNotZero(availableAmount)\n        onlyUniquePool(poolId)\n    {\n        pools[poolId] = Pool({\n            availableAmount: availableAmount,\n            lockTimestamp: lockTimestamp\n        });\n\n        token.mint(this, availableAmount);\n\n        PoolRegistered(poolId, availableAmount);\n\n        if (lockTimestamp > 0) {\n            PoolLocked(poolId, lockTimestamp);\n        }\n    }\n\n    /**\n     * @dev Transfer given amount of tokens to specified address\n     * @param to address The address to transfer to\n     * @param poolId string The unique pool id\n     * @param amount uint256 The amount of tokens to transfer\n     */\n    function transfer(string poolId, address to, uint256 amount)\n        public\n        onlyOwner\n        onlyValid(to)\n        onlyNotZero(amount)\n        onlySufficientAmount(poolId, amount)\n        onlyUnlockedPool(poolId)\n    {\n        pools[poolId].availableAmount = pools[poolId].availableAmount.sub(amount);\n        require(token.transfer(to, amount));\n\n        PoolTransferred(poolId, to, amount);\n    }\n\n    /**\n     * @dev Get available amount of tokens in the specified pool\n     * @param poolId string The unique pool id\n     * @return The available amount of tokens in the specified pool\n     */\n    function getAvailableAmount(string poolId)\n        public\n        view\n        returns (uint256)\n    {\n        return pools[poolId].availableAmount;\n    }\n\n    /**\n     * @dev Get lock timestamp of the pool or zero\n     * @param poolId string The unique pool id\n     * @return The lock expiration timestamp of the pool or zero if not specified\n     */\n    function getLockTimestamp(string poolId)\n        public\n        view\n        returns (uint256)\n    {\n        return pools[poolId].lockTimestamp;\n    }\n}\n",
  "sourcePath": "/home/js/Projects/pc/onlive/onlive-contracts/contracts/TokenPool.sol",
  "compiler": {
    "name": "solc",
    "version": "0.4.18+commit.9cf6e910.Emscripten.clang"
  },
  "schemaVersion": "1.0.1",
  "updatedAt": "2018-03-06T19:06:50.768Z"
}